:100000000C940E010C9436010C9436010C94D4051A
:100010000C94F8050C941C060C9436010C943601D3
:100020000C9436010C9436010C9436010C94360174
:100030000C9436010C9436010C9436010C94360164
:100040000C946B200C9436010C9424230C945623AE
:100050000C9436010C9436010C9436010C94360144
:100060000C9436010C9436013104460446044604CF
:1000700046043104310431043104310431043104C3
:10008000310431044604460446044604310446045F
:1000900007634236B79BD8A71A39685618AEBAAB71
:1000A000558C1D3CB7CC5763BD6DEDFD753EF61705
:1000B0007231BF000000803F08000000BE9224495A
:1000C000123EABAAAA2ABECDCCCC4C3E000000808A
:1000D000BEABAAAAAA3E00000000BF000000803FFD
:1000E0000000000000084178D3BB4387D1133D19BD
:1000F0000E3CC3BD4282AD2B3E68EC8276BED98FEA
:10010000E1A93E4C80EFFFBE01C4FF7F3F0000002D
:10011000000000C201000100110011000C0000E10C
:1001200000000A00250025002100009600001900AB
:10013000390039003600127A00001F0046004600E0
:1001400044008070000022004D004D004A00004B2A
:1001500000003600750075007200403800004A004B
:100160009C009C009900802500007200EC00EC00CF
:10017000E900C0120000E900DA01DA01D7016009E4
:100180000000D701B603B603B303B0040000B30305
:100190006E076E076B072C010000DC0EC11DC11D30
:1001A000BE1D00000008000201000003040700005B
:1001B000000000000000010204081020408001023D
:1001C000040810200102040810200404040404049C
:1001D00004040202020202020303030303030000F9
:1001E0000000230026002900000000002500280050
:1001F0002B0000000000240027002A004D02B40755
:10020000550B62100F14F2158C1762190E201A206C
:10021000252030205F2086233424620211241FBE53
:10022000CFEFD8E0DEBFCDBF11E0A0E0B1E0EEE15E
:10023000F4E502C005900D92A83FB107D9F726E07A
:10024000A8EFB1E001C01D92A737B207E1F711E0B6
:10025000CAE1D2E004C02297FE010E945029CC3F9F
:10026000D107C9F70E9444240C94022A0C94000080
:10027000CF92DF92EF92FF921F93CF93DF9300D044
:1002800000D0CDB7DEB7FB0120812F3309F060C06D
:100290002181203109F05CC0DC01AA0FBB1FAC5AE0
:1002A000BE4F8D919C91428150E0292F33274217F8
:1002B000530709F04DC0238130E0992728173907EB
:1002C00009F046C0258130E0DF01179680E090E01C
:1002D000C12CD12C76018217930744F4FE2CED2C0F
:1002E000DC2CCC244D91C42A0196F5CF1681612FC8
:1002F0006F7370E016FF03C07195619571098827CF
:1003000077FD8095982F0E94A5269B01AC0160E0A7
:1003100070E080E291E40E9494279B01AC0117FDFC
:100320005058C701B60129833A834B835C830E94EE
:10033000A52629813A814B815C810E94312720E0EA
:1003400030E048EC52E40E9431270E94722603C03C
:1003500060E070E0CB010F900F900F900F90DF9155
:10036000CF911F91FF90EF90DF90CF9008950F9362
:100370001F93CF93DF939B01FC01280F391F60E08F
:1003800070E0CB01E217F307E9F0C191D0E0A8E0FB
:10039000B0E040E850E0660F771F881F991F8A0180
:1003A0000C231D23012B09F061605595479580FFB3
:1003B00006C08827992711E2612710E1712711975C
:1003C00051F7E0CFDF91CF911F910F910895CF9317
:1003D000DF9300D000D000D0CDB7DEB76BE675E07C
:1003E000CE0101960E94E7136CE071E084ED95E088
:1003F0000E949124BE016F5F7F4F84ED95E00E94C3
:10040000CA2426960FB6F894DEBF0FBECDBFDF918B
:10041000CF910895CF93DF9300D000D000D0CDB717
:10042000DEB726E040E855E260E070E084ED95E05C
:100430000E94C22261E08DE00E94702160E08DE0A8
:100440000E94A92160E085E00E94702161E086E0C1
:100450000E94702140EB54E060E070E088EF91E092
:100460000E94BE0686E0E6E0F1E0DE011196019012
:100470000D928A95E1F7BE016F5F7F4F8BE695E0A5
:100480000E944C130E94E70126960FB6F894DEBF37
:100490000FBECDBFDF91CF9108950F9300E020E014
:1004A00040E060E083EA94E00E940D2488E192E05D
:1004B0000E94C40721E046E065E088EF91E00F91DB
:1004C0000C948E0688EF91E00C948F078F929F9288
:1004D000AF92BF92CF92DF92EF92FF920F931F9352
:1004E000CF93DF93CDB7DEB764970FB6F894DEBF36
:1004F0000FBECDBFADB6BEB68B010F5F1F4F9801CB
:100500002F5F3F4F4DB75EB7421B530B0FB6F894AA
:100510005EBF0FBE4DBFEDB7FEB731966F01DF0175
:10052000FC019F01281B390B261737071CF421916A
:100530002D93F7CF7601E60EF71EF70110824B01DF
:10054000F2E08F0E911C0C0D1D1DF8011082B401FC
:10055000C6010E94B701F7017083F80160839E0114
:100560002F5F3F4F790184E1F90111928A95E9F7F4
:1005700080E88983F60101E010E03BE1CF018C19AE
:100580009D098815990504F52081C801019626303A
:1005900041F02D3031F02B3121F0203411F0203892
:1005A00061F4D701A00FB11F3C930E5F1F4FD7011D
:1005B000A80FB91F20952C9305C0D701A00FB11F1C
:1005C0002C938C013196DACF8DE0F701E00FF11F0B
:1005D00080836701F60161916F0188EF91E00E94CD
:1005E0006605C6018E199F09081719079CF70FB6F3
:1005F000F894BEBE0FBEADBE64960FB6F894DEBFD3
:100600000FBECDBFDF91CF911F910F91FF90EF9063
:10061000DF90CF90BF90AF909F908F9008956F9292
:100620007F928F929F92AF92BF92CF92DF92EF9282
:10063000FF920F931F93CF93DF93CDB7DEB7E3976E
:100640000FB6F894DEBF0FBECDBF8C012BAB0E945E
:10065000B5204B015C0188EF91E00E94BE04C12CE3
:10066000D12C76012BA92D3041F10E94B5206819BB
:1006700079098A099B096D3271408105910518F04D
:1006800069E171E071C088EF91E00E94A604892BB6
:1006900061F388EF91E00E946B04282F803429F3E6
:1006A000E1E0F0E0EC0FFD1FEC0DFD1D80838FEF0E
:1006B000C81AD80AE80AF80AD6CF4801A12CB12CEA
:1006C000E1E0CE1AD108E108F1083401601A710A9C
:1006D000C501A0E0B0E08C159D05AE05BF05D0F5C5
:1006E000E1E0F0E0EC0FFD1FEA0DFB1D80818B3196
:1006F00041F5FFEFAF1ABF0AE1E0F0E0EC0FFD1F9C
:10070000EA0DFB1D208120952630C1F02D30B1F07F
:100710002B31A1F0203491F0203881F068E371E0B2
:1007200084ED95E02BAB0E94912440E150E02BA991
:10073000622F84ED95E00E9449252BA9F4012083C6
:1007400002C0F4018083FFEFAF1ABF0A2FEF821AB5
:10075000920ABBCFB301C8010E94B701672B682B77
:10076000692B49F068E471E084ED95E00E94B824BB
:1007700080E090E001C0C301E3960FB6F894DEBFBD
:100780000FBECDBFDF91CF911F910F91FF90EF90E2
:10079000DF90CF90BF90AF909F908F907F906F90A1
:1007A00008950F931F93CF93DF93CDB7DEB7AD9727
:1007B0000FB6F894DEBF0FBECDBF8C01CE01899677
:1007C00025E0FC0111922A95E9F72FE329A720E102
:1007D0002AA721E02BA7F801EE0FFF1FEC5AFE4FCE
:1007E000208131813CA72DA765E070E00E94660260
:1007F000CE0101960E940F03892B39F0BE016F5F75
:100800007F4FC8010E9438010BC00D30110529F43B
:1008100062E070E080E090E003C060E070E0CB0157
:10082000AD960FB6F894DEBF0FBECDBFDF91CF916E
:100830001F910F91089580911602909117020E94C6
:10084000D10340911602509117024431510528F509
:10085000FA01EC5CFF4F20911402309115020C94C8
:100860004E29F901EE0FFF1FE85EFD4F9183808353
:100870002F5F3F4FF901EE0FFF1FE85EFD4F7183C1
:100880006083309315022093140207C0F901EE0F24
:10089000FF1FE85EFD4F718360834F5F5F4F509392
:1008A000170240931602809114029091150201964E
:1008B00090931502809314024431510544F0109234
:1008C000170210921602109215021092140288E17B
:1008D00092E00C94C8072091EB043091EC042817A7
:1008E0003907B9F49091A9048091AA04981789F066
:1008F000E091A904F0E0E555FB4F80812091A90427
:1009000030E02F5F3F4F2F7333272093A90490E0EF
:1009100008958FEF9FEF08952091EB043091EC0440
:100920002817390781F49091A9048091AA04981797
:1009300051F0E091A904F0E0E555FB4F8081992743
:1009400087FD909508958FEF9FEF08952091EB0418
:100950003091EC042817390771F48091AA04209192
:10096000A90490E0805C9F4F821B910960E470E0D5
:100970000E94F928089580E090E008952091EB040A
:100980003091EC042817390739F48FB7F894109296
:10099000AA041092A9048FBF0895DC015196ED912D
:1009A000FC915297208150968C9180958223808370
:1009B000089520E001972FEF8F3F9207D9F7089510
:1009C0002091EB043091EC042817390789F0FC01E1
:1009D000238D2E7F238F2FB7F8941092AA041092A4
:1009E000A9049093EC048093EB042FBF81E0089559
:1009F00080E00895EF92FF920F931F93CF93DF93C0
:100A0000EC018B8DEE85FF859D8581FF04C0808183
:100A1000892329F045C08081892309F441C08B894D
:100A20009C890E94D90408E010E0EE24E394F12CA4
:100A30008D899E890E94D904EE85FF8580819D85E0
:100A4000892311F0FE2803C08E2D8095F822EE0C2C
:100A50000150110969F78F89988D0E94D9048B8DF7
:100A600081FFF0948091AA042091A90490E001965E
:100A70008F73992730E08217930779F0E091AA04E9
:100A8000F0E0E555FB4FF0828091AA0490E00196DA
:100A90008F7399278093AA0403C08B8D81608B8FFD
:100AA000DF91CF911F910F91FF90EF900895611109
:100AB00002C00C94CD04DC015196ED91FC9152974B
:100AC000208150968C91282B20830895DF92EF92FD
:100AD000FF920F931F93CF93DF93EC01E62E898D46
:100AE0009A8D892B39F481E090E09B838A8380E0A2
:100AF00090E049C0DFB6F8946B8D66956170CE01C9
:100B00000E945705898D9A8D05960E94D9048B8D78
:100B100008E010E0FF24F39481FF17C08F2D8E2191
:100B200021F0CE010E94CD0404C061E0CE010E94FC
:100B30005705898D9A8D0E94D904FF0C0150110927
:100B400069F7CE010E94CD0417C08F2D8E2129F0A8
:100B500061E0CE010E94570503C0CE010E94CD0482
:100B6000898D9A8D0E94D904FF0C0150110969F7F3
:100B700061E0CE010E945705DFBE898D9A8D0E94EB
:100B8000D90481E090E0DF91CF911F910F91FF9008
:100B9000EF90DF9008958091EB049091EC04009722
:100BA00011F00C94FA0408951F920F920FB60F9251
:100BB00011242F933F934F935F936F937F938F9362
:100BC0009F93AF93BF93EF93FF930E94CB05FF9149
:100BD000EF91BF91AF919F918F917F916F915F91B5
:100BE0004F913F912F910F900FBE0F901F9018952E
:100BF0001F920F920FB60F9211242F933F934F9392
:100C00005F936F937F938F939F93AF93BF93EF9374
:100C1000FF930E94CB05FF91EF91BF91AF919F9100
:100C20008F917F916F915F914F913F912F910F9095
:100C30000FBE0F901F9018951F920F920FB60F9234
:100C400011242F933F934F935F936F937F938F93D1
:100C50009F93AF93BF93EF93FF930E94CB05FF91B8
:100C6000EF91BF91AF919F918F917F916F915F9124
:100C70004F913F912F910F900FBE0F901F9018959D
:100C80001F93CF93DF93EC01162F61E0812F0E9419
:100C9000702161E0812F0E94A921812F90E0FC0149
:100CA000EA54FE4FE491E88BFC01E653FE4FE491D9
:100CB000F0E0EE0FFF1FE851FE4F859194919A8B63
:100CC000898BDF91CF911F9108951F93CF93DF936D
:100CD000EC01162F60E0812F0E9470218B8D81FF27
:100CE00004C061E0812F0E94A9211C87812F90E020
:100CF000FC01EA54FE4FE491ED87FC01E653FE4F00
:100D0000E491F0E0EE0FFF1FE252FE4F85919491C7
:100D10009F878E87DF91CF911F910895FF920F9348
:100D20001F93CF93DF93EC01F62E522F1B821A8272
:100D300008EE13E020E030E00C831D832E833F8318
:100D400080E891E0998388831C8A1B8A1E8A1D8A09
:100D5000188E1F8A1A8E198E8B8D8E7F50FB81F90B
:100D60008B8F642FCE010E9440066F2DCE01DF9144
:100D7000CF911F910F91FF900C9465060F931F93D5
:100D8000CF93DF93EC011A8E198E188E1F8A1E8A5C
:100D90001D8AA2E1B1E080E090E0FD01059115918E
:100DA00025913491041715072607370709F031C03C
:100DB0002CE0289FF001299FF00D1124EA5EFE4FE0
:100DC000259134913C8B2B8B2CE0289FF001299F9F
:100DD000F00D1124E85EFE4F259134913E8B2D8B52
:100DE0002CE0289FF001299FF00D1124E65EFE4FB4
:100DF00025913491388F2F8B2CE0289FF001299F6B
:100E0000F00D1124E45EFE4F859194919A8F898FA5
:100E100008C001961C968C30910509F0BECF1C8A43
:100E20001B8A8F89988D892B09F443C08C85863164
:100E3000E0F520916800883050F091E08E3008F4A1
:100E400090E081E001C0880F9A95EAF701C084E044
:100E5000822B809368002C85283038F02E3040F0AB
:100E6000263148F0E0E0F0E008C0EDE6F0E005C033
:100E7000EBE6F0E002C0ECE6F0E03081283030F440
:100E800081E001C0880F2A95EAF70DC0822F90E01B
:100E90002E3010F4089701C00E9791E001C0990F11
:100EA0008A95EAF7892F832B8083898D9A8D0E94FA
:100EB000D904CE01DF91CF911F910F910C94E004E2
:100EC000FC014485463150F5483028F04E3030F46E
:100ED000EBE6F0E005C0EDE6F0E002C0ECE6F0E0A5
:100EE0005081483040F481E090E0042E01C0880F2A
:100EF0000A94EAF710C0242F30E04E3018F428503E
:100F0000310902C02E50310981E090E0022E01C06B
:100F1000880F0A94EAF7809585238083089520E856
:100F200031E0FC01318320830C946007613071054E
:100F300019F06330710531F4FC01E757FD4F7183FF
:100F4000608309C06530710549F06630710531F084
:100F50006F30710519F06031710529F4FC01E75714
:100F6000FD4F7183608308950F9300E020E040E01F
:100F700060E083EF94E00E940D2466EF71E08DEE57
:100F800094E00F910C9457168DEE94E00C94131688
:100F90004F925F926F927F928F929F92AF92BF9289
:100FA000EF92FF920F931F93CF93DF93CDB7DEB7EE
:100FB0002D970FB6F894DEBF0FBECDBF8C01FC019C
:100FC000E158FE4F4081518121E030E0473E83E00F
:100FD000580714F020E030E0429FC001439F900D7D
:100FE000529F900D11240196918380836DEE74E0E1
:100FF000CE0101960E941B17CE0101960E946A1431
:10100000892B09F443C0F801EF57FE4F408151810D
:1010100021E030E0473E83E0580714F020E030E064
:10102000429FC001439F900D529F900D1124019645
:10103000918380837801CE0101960E946A14EFEFBC
:10104000EE1AFE0A892B49F0CE0101960E94731414
:10105000F701EC57FE4F8083EECFF801E457FE4FC7
:10106000608170E0C8010E949607F801E658FE4FC3
:10107000808181110BC081E080830E94B520F8013E
:10108000E558FE4F60837183828393830E94B5206D
:10109000F801E558FE4F80809180A280B380F0E691
:1010A0008F0EFAEE9F1EA11CB11C86169706A8068D
:1010B000B90630F4F801E658FE4F808181111082A4
:1010C000780127E7E21A2DEFF20AF701808191817A
:1010D000019709F096C05801F3E7AF1AFEEFBF0A77
:1010E000F801E257FE4F6081F50180810E94A02542
:1010F0004C01F801E057FE4F6081319780810E94DA
:10110000A0259C01AC0197FF02C0495F5F4FF3E04F
:1011100055954795FA95E1F7CA01A3E0880F991F05
:10112000AA95E1F78217930714F44F5F5F4FF80118
:10113000E657FE4F83E0840F8083F5014083C801AA
:10114000880D991DB801812C912C540183949B0129
:10115000201B310B241735078CF520E030E0FB0114
:10116000E257FE4FDC01A20FB31FA650BF4FAC9158
:10117000AA2369F0A08124013501022E04C0440C89
:10118000551C661C771C0A94D2F7A4290DC02401B3
:101190003501022E04C0440C551C661C771C0A94B1
:1011A000D2F74094A081A421A0832F5F3F4F283025
:1011B0003105C1F66F5F7F4F0896C9CF475F5F4F1C
:1011C000B8016B577E4FCE0101960E945014F80172
:1011D000ED57FE4F4081518121E030E0473E83E0F2
:1011E000580714F020E030E0429FC001439F900D6B
:1011F000529F900D1124019691838083F7011182F3
:101200001082F70180819181039709F05CC0F80199
:10121000E257FE4F60815801F3E7AF1AFEEFBF0AB5
:10122000F50180810E94A0254C01F801E057FE4F96
:101230006081319780810E94A025AC01440F551F29
:10124000F801E657FE4F23E0240F2083F501408389
:101250009801880C991C60E070E06817790784F4A5
:10126000F901E80DF91DA081B181F901E257FE4FA6
:10127000B0833196A0836F5F7F4F2E5F3F4FEDCFDE
:10128000475F5F4FB8016B577E4FCE0101960E94BA
:101290005014F801ED57FE4F4081518121E030E0BC
:1012A000473E83E0580714F020E030E0429FC00141
:1012B000439F900D529F900D11240196918380833E
:1012C000F70111821082F70180819181059709F061
:1012D00043C0F801E257FE4F6081319780810E9440
:1012E000A0255C01F801E057FE4F608131978081B5
:1012F0000E94A025A00EB11EF501E650FF4F21E08F
:10130000892B09F420E0208382E0F801E657FE4FA4
:10131000808348E050E0B8016B577E4FCE010196C4
:101320000E945014F801ED57FE4F4081518121E099
:1013300030E0473E83E0580714F020E030E0429F61
:10134000C001439F900D529F900D112401969183EF
:101350008083F70111821082F701808191810697C5
:1013600009F040C0F801E257FE4F6081319780815B
:101370000E94A0255C01F801E057FE4F6081319783
:1013800080810E94A025F501EE0FFF1FE00FF11FE5
:101390009183808386E0F801E657FE4F80834CE01E
:1013A00050E0B8016B577E4FCE0101960E94501459
:1013B000F801ED57FE4F4081518121E030E0473E7A
:1013C00083E0580714F020E030E0429FC001439FC3
:1013D000900D529F900D1124019691838083F70107
:1013E00011821082F701808191810F9709F07AC0F4
:1013F000F801E257FE4F6081319780810E94A0255D
:101400005C01F801E057FE4F6081319780810E94B6
:10141000A0259C01AC0197FF02C0495F5F4F63E0CC
:10142000559547956A95E1F7CA0173E0880F991FB2
:101430007A95E1F78217930714F44F5F5F4FF80135
:10144000E657FE4F85E0840F8083C8018A0D9B1DFF
:1014500060E070E06417750714F5F801E60FF71FF8
:10146000EE56FE4FE0818E2E912C20E030E0DC0124
:10147000A20FB31FA650BF4F5401022E02C0B59455
:10148000A7940A94E2F7FA2DF170FC932F5F3F4F77
:101490002830310561F76F5F7F4F0896DBCF4CE056
:1014A00050E0B8016B577E4FCE0101960E94501458
:1014B000F801ED57FE4F4081518121E030E0473E79
:1014C00083E0580714F020E030E0429FC001439FC2
:1014D000900D529F900D1124019691838083F70106
:1014E00011821082F70180819181409709F05AC0E2
:1014F000F801E257FE4F6081319780810E94A0255C
:101500004C01F801E057FE4F6081319780810E94C5
:10151000A0252C01F801E657FE4F880F991F8D5F1B
:1015200080835801880C991C612C712C64147504FB
:10153000B4F4D501AD56BE4FF501EE56FE4F6C9199
:1015400080810E94A025F501E80DF91D918380831B
:10155000FFEF6F1A7F0A22E0A20EB11CE7CFB8019D
:101560006B577E4F4CE050E0CE0101960E94501424
:10157000F801ED57FE4F4081518121E030E0473EB8
:1015800083E0580714F020E030E0429FC001439F01
:10159000900D529F900D1124019691838083F70145
:1015A000118210822D960FB6F894DEBF0FBECDBF0C
:1015B000DF91CF911F910F91FF90EF90BF90AF906F
:1015C0009F908F907F906F905F904F900895CF93F2
:1015D000CFB7F8948091FC04811116C061E08AE0D5
:1015E0000E94A92161E08AE00E9470218CB580618F
:1015F0008CBD8CB580648CBD61E08DE00E94702153
:1016000061E08BE00E9470218091FC048F5F8093E9
:10161000FC04CFBFCF9108950E9624E1FC011192F6
:101620002A95E9F70895CF93DF93EC01625F7F4F2E
:101630000E941924CE01DF91CF910895CF93DF93BB
:10164000EC016E5E7F4F0E941924CE01DF91CF9195
:101650000895CF93DF93EC016A5E7F4F0E941924B7
:10166000CE01DF91CF910895CF93DF93EC01625EBD
:101670007F4F0E941924CE01DF91CF91089580E31E
:10168000FB0180833296842F82958F7090E1899F31
:10169000401911244A3014F4405D01C0495C429362
:1016A000882311F0482FEFCF08950F9300E020E03A
:1016B00040E060E08DEF94E00E940D240F910895CA
:1016C0006F927F928F929F92AF92BF92CF92DF9252
:1016D000EF92FF920F931F93CF93DF93CDB7DEB7B7
:1016E000AC970FB6F894DEBF0FBECDBF7C01862E3F
:1016F000B42EA52E20E2922ECE0101966C01FC01A3
:10170000292D11922A95E9F70FEF2FEF4FEF6FEF89
:1017100086960E940D2485EF91E09AA389A389A55E
:101720009AA5ABA5BCA58BA39CA3ADA3BEA3870123
:10173000095B1F4F43E450E0BE016F5D7F4FC8015E
:101740000E94F317019609F4BFC081E089838A8360
:1017500086E0782E7B821C82F70164817581868108
:1017600097810E9454296D837E838F839887A986F1
:10177000BA8680E890E09C878B874CE150E0B60108
:10178000C8010E94FF17F601292D11922A95E9F749
:10179000570188E0A80EB11CF501D60101900D9209
:1017A0007A94E1F740E150E0B601C8010E94FF17CA
:1017B000F60111929A94E9F796E0692E712C40E2B5
:1017C00050E0B601C8010E94FF17F1E06F1A7108DE
:1017D000B1F783E6898392E89A8393E59B838C83B0
:1017E00085E38D8381E08E838F829DE3988797E0E8
:1017F00099878A8786E0F501DE011B9601900D929C
:101800008A95E1F78CE0898B8A8B6CE871E0CE01D8
:1018100043960E94F329F7014385BE01675E7F4F1F
:10182000C7010E943F0BF7014485BE01655E7F4FF3
:10183000C7010E943F0BF7014585BE01635E7F4FE4
:10184000C7010E943F0B4EE150E0B601C8010E9463
:10185000FF17F3E08F121EC082E3898384E08A833E
:10186000F70196859B8397859C8390899D839189B9
:101870009E8396E39F838887828D8987838D8A875D
:10188000848D8B87858D8C874CE050E0B601C80134
:101890000E94FF1787E3898386E08A8391E09B8318
:1018A00093E09C838D838FE08E838AE38F838BE329
:1018B00088878FEF898749E050E0B601C8010E9410
:1018C000FF17C8010E94FB17AC960FB6F894DEBF55
:1018D0000FBECDBFDF91CF911F910F91FF90EF9081
:1018E000DF90CF90BF90AF909F908F907F906F9040
:1018F00008952F923F924F925F926F927F928F92B4
:101900009F92AF92BF92CF92DF92EF92FF920F938E
:101910001F93CF93DF93CDB7DEB7E3970FB6F8945D
:10192000DEBF0FBECDBF7C012A013B0169010E94D1
:10193000B5204B015C018701095B1F4FC8010E9464
:101940009F181816190694F00E94B5206819790995
:101950008A099B094616570668067906F0F062E385
:1019600070E080E090E00E94E420E8CF42E250E0A6
:10197000BE016F5F7F4FC8010E943C188981823091
:1019800031F4F801858996898334910541F019A6CF
:10199000C8010E94CC1789A566C18FEF64C16D8113
:1019A0007E818F8198850E9454294B015C01F6014C
:1019B000608371838283938346E050E0B701685F60
:1019C0007F4FCE014D960E94E629892B99F4F701AD
:1019D00080819181A281B38188169906AA06BB06EF
:1019E00048F084819581A681B78188159905AA055B
:1019F000BB0528F4C8010E94CC1780E034C1898956
:101A00009A89AB89BC89F70186879787A08BB18BB0
:101A10003EECC32ED12CC8010E941318F1E0CF1A5E
:101A2000D108C9F719A6C70182969BA78AA7F70113
:101A3000B696FDA7ECA708969FA78EA73C976F01C7
:101A40008E9699AB88AB3897FBABEAAB5701F6E1C2
:101A5000AF0EB11C47018EE1880E911CC8010E9497
:101A6000B217181619060CF093CFC8010E9413186C
:101A70008333910509F4CDC0F4F481309105B9F1B7
:101A80001CF4892B59F3DFC083309105C1F106970F
:101A900009F0D9C0C8010E9413183C0144E050E08D
:101AA000B401C8010E943C18212C312C7724F4E0A9
:101AB0006F1A71083FC08A33910509F47EC03CF467
:101AC0008533910561F0C69709F43FC0BCC08B33E4
:101AD000910509F488C08F3F910501F2B4C0C80197
:101AE0000E941318C8010E94131889A7B7CFC80114
:101AF0000E94131844E050E06AA97BA93AC0C801CB
:101B00000E9413183C0144E050E0B501C8010E9456
:101B10003C18212C312C772494E0691A7108261482
:101B200037040CF09BCFC8010E941318EFEF2E1A58
:101B30003E0AF5CF261437040CF090CFC8010E945E
:101B400013188FEF281A380AF5CFC8010E9413180E
:101B5000782EF701828D811110C0838D81110DC007
:101B6000848D81110AC0858D811107C044E050E049
:101B7000B601C8010E943C1871CFE8A9F9A92080DC
:101B8000318042805380B601CE0183960E94192491
:101B90008DA19EA1AFA1B8A582159305A405B50599
:101BA00029F3212C312C721409F458CFC8010E945A
:101BB0001318FFEF2F1A3F0AF6CFC8010E9413181F
:101BC00044E050E06CA57DA5C8010E943C18F701D7
:101BD00066A177A180A591A50E94542966A377A349
:101BE00080A791A73BCFC8010E94131844E050E0A2
:101BF0006EA57FA5C8010E943C18F70162A573A5D8
:101C000084A595A50E94542962A773A784A795A7C8
:101C100025CFC8010E94131844E050E06AA57BA5B7
:101C2000C8010E943C18F70162A173A184A195A18B
:101C30000E94542962A373A384A395A366A777A7E0
:101C400080AB91AB0BCFC8010E941318382E612CCA
:101C5000712C361409F402CFC8010E941318FFEF4B
:101C60006F1A7F0AF6CFE3960FB6F894DEBF0FBE69
:101C7000CDBFDF91CF911F910F91FF90EF90DF903B
:101C8000CF90BF90AF909F908F907F906F905F901C
:101C90004F903F902F9008952F923F924F925F92D6
:101CA0006F927F928F929F92AF92BF92CF92DF926C
:101CB000EF92FF920F931F93CF93DF93CDB7DEB7D1
:101CC00027970FB6F894DEBF0FBECDBF8C0120ED75
:101CD00037E040E050E061E070E080E090E00E949A
:101CE0008425D80114966D937D938D939C931797BB
:101CF000F80160837183828393834801F7E48F0E38
:101D0000911CC4010E94DE1764E470E0C4010E94CB
:101D10007218882309F428C10E94B5206B017C0148
:101D2000A12CB12C1D82180186E4280E311CD8018B
:101D3000DE96BF83AE8338EE432E33E0532E612C04
:101D4000712CF1018081833009F4FDC081111FC025
:101D5000F80184819581A681B7810196A11DB11DED
:101D600084839583A683B7830E94B5206C197D096F
:101D70008E099F09A30192010E940D29A90161E02A
:101D8000C8010E94600B81E0D1018C93BEC08430F9
:101D9000F9F4F80184819581A681B7810196A11D8E
:101DA000B11D84839583A683B7830E94B5206C19E7
:101DB0007D098E099F09A30192010E940D29A901A5
:101DC00063E0C8010E94600BE2E0D101EC939DC08A
:101DD000813061F5AE81BF814D915D916D917C91B6
:101DE0009E012F5F3F4FC8010E94790C8D83823086
:101DF00009F08BC089819A81AB81BC81F801848311
:101E00009583A683B7830E94B5206C197D098E093E
:101E10009F09A30192010E940D29A90163E0C80155
:101E20000E94600BED81D101EC9375C0823009F006
:101E30006CC0AE81BF814D915D916D917C919E0191
:101E40002F5F3F4FC8010E94790C8D83853009F0C8
:101E500056C083E0F1018083F80182A193A1A4A17F
:101E6000B5A1892B8A2B8B2B41F484E893E0A0E069
:101E7000B0E082A393A3A4A3B5A3F80186A197A180
:101E8000A0A5B1A5892B8A2B8B2B61F482A193A1EC
:101E9000A4A1B5A1B695A7959795879586A397A375
:101EA000A0A7B1A7D8019A964D915D916D917C91B3
:101EB0009D9796968D919D910D90BC91A02D452B4F
:101EC000462B472B59F4AC01BD01440F551F661F2B
:101ED000771FF80142A753A764A775A7F80186A743
:101EE00097A7A0ABB1AB82A593A5A4A5B5A582ABDE
:101EF00093ABA4ABB5ABAA24A394B12C0CC0FD81C9
:101F0000F63019F4D1011C9206C0BD81BF3F19F40F
:101F1000F10110821D82F1E0AF16B10409F411CF76
:101F20000E94B5206C197D098E099F09D801DA96A7
:101F30002D913D914D915C91DD972617370748070C
:101F4000590708F0FECEC4010E94DE17F801848113
:101F50009581A681B7810196A11DB11D84839583CA
:101F6000A683B783C50102C080E090E027960FB634
:101F7000F894DEBF0FBECDBFDF91CF911F910F91BF
:101F8000FF90EF90DF90CF90BF90AF909F908F9099
:101F90007F906F905F904F903F902F900895CF92D9
:101FA000DF92EF92FF920F931F93CF93DF93EC0199
:101FB0006B011AA21BA21CA21DA21EA21FA218A680
:101FC00019A61AA61BA61CA61DA61EAA1FAA18AEF5
:101FD00019AE2AAF3BAF4CAF5DAFFC01FE96E0827D
:101FE000F182028313838C01085F1F4F86E0F801A2
:101FF00011928A95E9F7CE010E940C0B86E0F6015A
:10200000D80101900D928A95E1F7FE01EA5BFF4F3E
:102010001082CE01DF91CF911F910F91FF90EF9031
:10202000DF90CF900C944C0EFB0142815381648170
:102030007581FC0142835383648375831782168202
:102040000895CF93FB0181918111FDCFFB0180E0C9
:1020500090E020E030E0CAE06191662309F124308D
:10206000310564F56E3271F48F3F910509F034F556
:10207000DA01A20FB31F12968C932F5F3F4F80E0BF
:1020800090E0EACFDC01CA9FC001CB9F900D1124E4
:10209000772767FD709560537109860F971FDCCF16
:1020A0008F3F910509F054F4243031053CF4FA01D6
:1020B000E20FF31F828381E090E002C080E090E0B5
:1020C000CF9108950F9300E020E040E060E083E0CE
:1020D00095E00E940D240F910895AF92BF92CF9288
:1020E000DF92EF92FF920F931F93CF93DF9300D075
:1020F0001F92CDB7DEB76C017B010E94B520F601BF
:10210000778366838601085F1F4FB6016A5F7F4F42
:1021100042E050E0C8010E94FF1781E090E09A83FE
:10212000898342E050E0BE016F5F7F4FC8010E948B
:10213000FF1780E091E09A83898342E050E0BE017E
:102140006F5F7F4FC8010E94FF171A82198242E019
:1021500050E0BE016F5F7F4FC8010E94FF1742E051
:1021600050E0BE016F5F7F4FC8010E94FF1742E041
:1021700050E0BE016F5F7F4FC8010E94FF176701EB
:10218000F6018081882311F1F7016F01819181119E
:1021900015C05601AE18BF081A141B0494F4AB8284
:1021A00041E050E0BE016D5F7F4FC8010E94FF1704
:1021B000A501B701C8010E94FF1703C08E3229F79D
:1021C000E8CF7601FFEFEF1AFF0ADACF1B8241E07A
:1021D00050E0BE016D5F7F4FC8010E94FF17E12CE8
:1021E000FF24F394FA82E98242E050E0BE016F5F7F
:1021F0007F4FC8010E94FF17FA82E98242E050E057
:10220000BE016F5F7F4FC8010E94FF1781E090E021
:102210000F900F900F90DF91CF911F910F91FF9032
:10222000EF90DF90CF90BF90AF9008954F925F9264
:102230006F927F928F929F92AF92BF92CF92DF92D6
:10224000EF92FF920F931F93CF93DF93CDB7DEB73B
:1022500063970FB6F894DEBF0FBECDBF7C015B0164
:102260006A010E94B5202B013C018701085F1F4FC6
:102270004501A12CB12CC8010E949F1818161906FF
:1022800094F00E94B520641975098609970986168D
:102290009706A806B906D0F062E370E080E090E00F
:1022A0000E94E420E8CFF701428153816481758167
:1022B000818D928DA38DB48D481759076A077B07CE
:1022C00041F4858D968DC59721F406C08FEF9FEF61
:1022D000F9C08EEF9FEFF6C0C8010E94B2170C97AD
:1022E0000CF4EEC04CE050E0BE016F5F7F4FC801C0
:1022F0000E943C188B819C819827892798279A8B6C
:10230000898BF7014681578129813A81421753070A
:1023100011F497FD06C0C8010E94CC178CEF9FEF07
:10232000D1C08F709270892B31F0C8010E94CC17F8
:102330008BEF9FEFC7C0AF80B884BA24AB24BA2418
:10234000A114B10419F0E12CF12C23C0C8010E94A2
:10235000CC178AEF9FEFB6C041E050E0BE01635F4B
:102360007F4FC8010E943C188D8581111BC08D854F
:102370008111F2CFC8010E941318C8010E941318DE
:10238000C8010E941318C8010E941318FFEFEF1A2A
:10239000FF0A8D819E81982789279827E816F906DC
:1023A000D8F20AC08D859FEF980F9D878823F9F298
:1023B000C8010E941318F6CFE12CF12C41E050E047
:1023C000BE016D5E7F4FC8010E943C188B89982F1B
:1023D000907C61F4882371F08B899FEF980F9B8B21
:1023E000882341F0C8010E941318F6CFC8010E944B
:1023F00013181B8A8B898111E1CF42E050E0BE01A6
:10240000615F7F4FC8010E943C1842E050E0BE016E
:10241000635F7F4FC8010E943C18C8010E941318D7
:10242000C8010E941318C8010E941318C8010E9415
:10243000131842E050E0BE016F5E7F4FC8010E945A
:102440003C188F8598898115914029F48D859E854A
:102450008115914019F0812C912C16C089899A8997
:102460008115944031F0C8010E94CC1787EF9FEF8F
:1024700029C0B6016E5F7F4F44E050E0C8010E9462
:102480003C1881E090E01EC089899A8998278927A5
:1024900098278816990638F4C8010E9413182FEF60
:1024A000821A920AF1CF8FEFE81AF80AEA14FB04B5
:1024B00009F084CFC8010E94CC1786EF9FEF02C0BD
:1024C0008DEF9FEF63960FB6F894DEBF0FBECDBFC2
:1024D000DF91CF911F910F91FF90EF90DF90CF9000
:1024E000BF90AF909F908F907F906F905F904F9034
:1024F00008958F929F92AF92BF92CF92DF92EF9208
:10250000FF920F931F93CF93DF9300D000D000D0A2
:10251000CDB7DEB78C015B016A010E9421104C012E
:10252000009709F05DC0F801428153816481758193
:102530008091050590910605A0910705B0910805C9
:10254000481759076A077B0709F44EC00E94B52057
:102550007801F8E0EF0EF11C6F7077277C5FC70100
:102560000E947218813009F043C085EF91E09A8390
:102570008983F80182819381A481B5818B839C83B7
:10258000AD83BE8345E350E0BE016F5F7F4FC7015F
:102590000E94F317892B19F4812C912C1DC0B501D1
:1025A000C8010E946D10892BB9F3C7010E94FB1767
:1025B000892B91F333E0A32EB12CA60168E873E1D7
:1025C000C8010E9416114C01F1E0AF1AB10821F0C8
:1025D0008F3F2FEF920789F3C7010E94DE1708C0D3
:1025E00088248394912C04C09EEF892E99249A9478
:1025F000C40126960FB6F894DEBF0FBECDBFDF91A3
:10260000CF911F910F91FF90EF90DF90CF90BF90EF
:10261000AF909F908F9008952091FB04222399F012
:102620003FB7F8942091FB04213059F42DB3209347
:10263000F9044DB32091FA04209524232DBB3FBF0C
:1026400002C03093F9048CBD9DBD08958091FB04B8
:10265000882361F09FB7F8942091FB048091F904DE
:10266000213019F48DBB9FBF08958FBF089544E0BA
:1026700050E0BC0181E090E00C94051E44E050E085
:10268000BC0185E090E00C94051E44E050E0BC01E4
:102690008FE090E00C94051EAF92BF92CF92DF9234
:1026A000EF92FF920F931F93CF93DF9300D000D050
:1026B00000D0CDB7DEB76C015B018091730581114D
:1026C00007C080E595E00E94EF1881E080937305D4
:1026D00089E095E0F601978386838DE995E00E9475
:1026E0009D1D80E590E00E940C1346E050E0B5018E
:1026F00089E090E00E94051E00E020E040E060E0FC
:10270000CE0101960E940D24CE0103960E9445132E
:102710000E94261310EAE12E1FE0F12E00E010E0E7
:1027200020E63AEE40E050E0B501F601868197815F
:102730000E94CF0F5C0181309105B9F580E590E0F2
:102740000E940C13F60166817781CE0101960E94EA
:10275000130BCE0103960E944513F6016681778123
:10276000CE0101960E94290BCE0103960E943713D9
:10277000F60166817781CE0101960E941E0BCE0183
:1027800003960E943E130E942613F601668177810C
:10279000CE0101960E94340B4B815C816D817E815C
:1027A000F6014283538364837583C50126960FB671
:1027B000F894DEBF0FBECDBFDF91CF911F910F9177
:1027C000FF90EF90DF90CF90BF90AF900895CF93A0
:1027D000DF93EC010E94032480E590E00E940C133B
:1027E000BE016E5F7F4F44E050E08FE090E00E94BA
:1027F000361F0E942613CE01DF91CF91089525EF59
:1028000031E0FC0131832083FB01428153816481EB
:102810007581FC01428353836483758308950F930C
:1028200000E020E040E060E083E895E00E940D24B5
:102830008BE695E00F910C940324DC01ED91FC9163
:10284000008CF18DE02D099591E089270895CF93B3
:10285000DF931F92CDB7DEB76983DC01ED91FC9168
:102860000280F381E02D41E050E0BE016F5F7F4FB9
:1028700009950F90DF91CF91089521E0FC018485A7
:10288000843009F420E0822F0895FC019485FB0137
:102890008485981303C081E0943009F480E00895A2
:1028A0000F931F93CF93DF93EC018A018C858430C3
:1028B00021F00E943F1B892B39F481E090E09B833B
:1028C0008A8380E090E001C0C801DF91CF911F9121
:1028D0000F910895FC018485843011F00C94361C0E
:1028E00080E090E00895CF93DF931F92CDB7DEB7DD
:1028F00041E050E0BE016F5F7F4FFC0184850E9484
:10290000D61B181619061CF4898190E002C08FEFBF
:102910009FEF0F90DF91CF910895FC0184850C9477
:10292000D61B0F931F93CF93DF931F92CDB7DEB7C4
:102930008C01DC01ED91FC910480F581E02D09957D
:10294000892B51F0BE016F5F7F4FF80184850E9493
:10295000611C898190E002C08FEF9FEF0F90DF91A3
:10296000CF911F910F910895FC0184850C94901CC8
:10297000CF92DF92EF92FF920F931F93CF93DF934B
:10298000CDB7DEB7AF970FB6F894DEBF0FBECDBFA1
:102990007C018B016A01CE0101960E940324CE01C5
:1029A00009960E94EF18CE018A960E9403246BE6D6
:1029B00075E0CE0184960E94FF13BE016C5D7F4FCF
:1029C000CE0101960E941410AE01465D5F4FB80122
:1029D000CE0101960E94791281309105C1F4D70190
:1029E000ED91FC910484F585E02D85EF91E09DA3A8
:1029F0008CA30CA51DA52EA53FA50EA31FA328A73C
:102A000039A7A601BE016C5D7F4FC7010995AF963E
:102A10000FB6F894DEBF0FBECDBFDF91CF911F91EF
:102A20000F91FF90EF90DF90CF900895FC01262F3B
:102A30001382128248EE53E060E070E044835583D5
:102A40006683778387E991E0918380832487089563
:102A5000FC018485843011F00C94E91980E008951C
:102A6000DF92EF92FF920F931F93CF93DF93EC01CE
:102A70007B018A018C85843009F045C0D12C8D2DD5
:102A80000E94E919811102C0DC8607C08B7F883162
:102A9000D9F3D39484E0D812F2CF8C85843099F1A5
:102AA00020910401309105012F5F3F4F11F420E088
:102AB00030EC3093050120930401409104015091C2
:102AC000050120E061E00E943B1AB7016E5F7F4F75
:102AD000A8018C850E94C11A811103C084E08C87F3
:102AE00012C0CE010E942815873151F061E070E0DC
:102AF00080E090E00E94E420CE010E942815ECCFF7
:102B000081E090E002C080E090E0DF91CF911F91E2
:102B10000F91FF90EF90DF900895CF92DF92EF92A8
:102B2000FF92CF93DF93EC018C85843081F10E947A
:102B3000191B0E94B5206B017C01CE010E94281553
:102B4000882359F00E94B5206C197D098E099F09D0
:102B5000683E73408105910598F0CE010E942815CA
:102B6000882319F08C850E94111AEC85F0E0EE0F95
:102B7000FF1FE558FA4F1182108284E08C8707C04E
:102B800061E070E080E090E00E94E420D6CFDF9129
:102B9000CF91FF90EF90DF90CF900895CF93DF9388
:102BA000EC018C858430D1F0CE010E94281584314F
:102BB000A9F0882399F0883189F08C3169F4E88193
:102BC000F9810480F581E02DCE01099521E0892B62
:102BD00009F420E0822F03C081E001C080E0DF9192
:102BE000CF9108950F9300E020E040E060E089E895
:102BF00095E00E940D240F910895CF93DF931F92CB
:102C0000CDB7DEB76983DC01ED91FC910280F381E1
:102C1000E02D41E050E0BE016F5F7F4F09950F90BE
:102C2000DF91CF910895EF92FF920F931F93CF936F
:102C3000DF93CDB7DEB72D970FB6F894DEBF0FBE8A
:102C4000CDBF7C0100E010E0602FCE0101960E9414
:102C50001615CE0101960E942815811116C0F701A4
:102C60004481558120E061E0802F0E943B1A802F33
:102C70000E948F1AF70184819581F801EE0FFF1FE2
:102C8000E558FA4F9183808305C00F5F1F4F0430D2
:102C90001105D1F62D960FB6F894DEBF0FBECDBF4D
:102CA000DF91CF911F910F91FF90EF900895FC015C
:102CB0001382128287EB91E0918380837583648312
:102CC0000895BF92CF92DF92EF92FF920F931F93DE
:102CD000CF93DF93CDB7DEB72D970FB6F894DEBF55
:102CE0000FBECDBF8C014BE7C42E45E0D42EB12CD6
:102CF000E12CF12C6B2DCE0101960E941615D60108
:102D00002D913D916D01F801848195812817390736
:102D1000B1F4CE0101960E942815843169F0CE01EC
:102D200001960E9428158C3151F4CE0101960E9423
:102D30006A14892B99F003C0EE24E394F12CB39428
:102D4000F4E0BF12D7CFEF2871F4D801ED91FC91D8
:102D50000480F581E02DC801099505C0CE010196DA
:102D60000E948D15ECCF2D960FB6F894DEBF0FBEE6
:102D7000CDBFDF91CF911F910F91FF90EF90DF902A
:102D8000CF90BF9008957F928F929F92AF92BF9203
:102D9000CF92DF92EF92FF920F931F93CF93DF9327
:102DA000CDB7DEB72D970FB6F894DEBF0FBECDBFFF
:102DB0006C015B014A010E9461165BE7E52E55E05C
:102DC000F52E712C00E010E0672DCE0101960E94D7
:102DD0001615F701219131917F01F60184819581CA
:102DE0002817390731F4CE0101960E942815873142
:102DF000C9F07394F4E07F12E7CFC8012D960FB6A7
:102E0000F894DEBF0FBECDBFDF91CF911F910F9120
:102E1000FF90EF90DF90CF90BF90AF909F908F90FA
:102E20007F900895A401B501CE0101960E9450142F
:102E3000080F191FDECFBF92CF92DF92EF92FF9261
:102E40000F931F93CF93DF93CDB7DEB72D970FB6B8
:102E5000F894DEBF0FBECDBF8C016B01CB010E9489
:102E600061166BE7E62E65E0F62EB12C6B2DCE01D8
:102E700001960E941615F701219131917F01F6010B
:102E8000848195812817390761F4CE0101960E944B
:102E90002815873179F0CE0101960E9428158C31D2
:102EA00049F0B394F4E0BF12E1CF64E0C8010E949E
:102EB000161521C0CE0101960E946A14892B89F350
:102EC0008B819C81F801938382838D819E81AF8168
:102ED000B88584839583A683B78349855A856B8596
:102EE0007C85408751876287738787E991E091836A
:102EF00080838D858487C8012D960FB6F894DEBF38
:102F00000FBECDBFDF91CF911F910F91FF90EF903A
:102F1000DF90CF90BF9008950F9300E020E040E055
:102F200060E08FE895E00E940D240F910895DC0188
:102F3000ED91FC91008CF18DE02D099425EF31E0AD
:102F4000FC0131832083FB014189528963897489A3
:102F5000FC0142835383648375830895FC01858952
:102F600096890895FC01818D928D0895CF93DF930A
:102F70001F92CDB7DEB76983DC01ED91FC91028031
:102F8000F381E02D41E050E0BE016F5F7F4F099576
:102F90000F90DF91CF910895CF93DF93EC01898D4E
:102FA0009A8D892B41F0E881F9810680F781E02D27
:102FB000CE010995F4CFDF91CF910895CF93DF93A0
:102FC000EC018C85843061F00E94111AEC85F0E0F0
:102FD000EE0FFF1FE558FA4F1182108284E08C87B4
:102FE000DF91CF910895FC01108E178A6E5F7F4F9D
:102FF00084850C94D81CFC0184850C941E1DCF93F1
:10300000DF93EC019A018F89988DAB01BC018C850F
:103010000E94911C2F89388D280F391F388F2F8BD4
:10302000DF91CF9108950F931F93CF93DF931F925A
:10303000CDB7DEB78C01FC01818D928D892B59F0C3
:1030400041E050E0BE016F5F7F4F84850E94D61B38
:10305000181619061CF08FEF9FEF08C0F801818D3C
:10306000928D0197928F818F898190E00F90DF91EF
:10307000CF911F910F910895CF93DF93EC01898D2C
:103080009A8D009719F48FEF9FEF10C048175907DA
:1030900008F0AC018C850E94D61B181619069CF707
:1030A000298D3A8D281B390B3A8F298FDF91CF91CB
:1030B0000895CF93DF931F92CDB7DEB7FC01218D2A
:1030C000328D232B49F0BE016F5F7F4F84850E94B4
:1030D000611C898190E002C08FEF9FEF0F90DF911C
:1030E000CF910895FF920F931F93CF93DF93EC013D
:1030F0008B018C858430E1F4F12C8F2D0E94E9192D
:10310000811102C0FC8606C08831E1F3F39484E0AB
:10311000F812F3CF8C85843059F01E870D871A8EF4
:10312000198E20E0A80162E00E943B1A81E001C0F4
:1031300080E0DF91CF911F910F91FF9008950F9341
:103140001F93CF93DF93CDB7DEB728970FB6F894D0
:10315000DEBF0FBECDBF8C01DC01ED91FC9102847E
:10316000F385E02D0995F80184850E94361C181618
:10317000190644F548E050E0BE016F5F7F4FD8016B
:103180001C968C910E94D61B18161906ECF4BE01F1
:103190006F5F7F4FC8010F960E9429248D8190E0B8
:1031A000982F88272E81820F911DF801968B858B91
:1031B0008F8190E0982F88272885820F911D928F0C
:1031C000818F02C080E090E028960FB6F894DEBFB1
:1031D0000FBECDBFDF91CF911F910F910895FC01DC
:1031E0001382128248EE53E060E070E0448355831E
:1031F0006683778381EC91E09183808384E0848788
:10320000CF010F960C940324CF92DF92EF92FF929E
:103210000F931F93CF93DF93CDB7DEB7AF970FB662
:10322000F894DEBF0FBECDBF7C018B016A01CE01D9
:1032300001960E940324CE0109960E94EF18CE0148
:103240008A960E9403246BE675E0CE0184960E9464
:10325000FF13BE016C5D7F4FCE0101960E941410DA
:10326000AE01465D5F4FB801CE0101960E94791212
:1032700081309105C1F4D701ED91FC910088F1896D
:10328000E02D85EF91E09DA38CA30CA51DA52EA597
:103290003FA50EA31FA328A739A7A601BE016C5DF9
:1032A0007F4FC7010995AF960FB6F894DEBF0FBEEA
:1032B000CDBFDF91CF911F910F91FF90EF90DF90E5
:1032C000CF9008950F9300E020E040E060E085E9B2
:1032D00095E00E940D240F910895CF92DF92EF9216
:1032E000FF920F9330E0C12CF2E1DF2EFAE7EF2ED0
:1032F000F12C4C155D056E057F0540F4F694E794BE
:10330000D794C7943F5F3630A1F737E041E04327B9
:10331000211102C050E701C050E5242F30E035955F
:10332000279523700C70202B252BFC0120834170E6
:1033300041830F91FF90EF90DF90CF90089590E040
:10334000982F882744E050E0845F9B4F0C94051E23
:10335000282F30E02C5F3F4F922F8827860F971F32
:103360000C94341E62E070E00C94A819FB01282F25
:1033700030E02C5F3F4F922F8827642F8E0F9F1FC6
:103380000C947B1DCF93DF93C82FD62F472F64E07B
:1033900070E00E94B6194D2F65E070E08C2FDF9130
:1033A000CF910C94B619462F62E070E00C94B619D8
:1033B000CF93DF93C82FD62F472F60E170E00E9494
:1033C000B6194D2F61E170E08C2FDF91CF910C94F5
:1033D000B6190F931F93CF93DF9300D01F92CDB7F1
:1033E000DEB7182F00E021E040E059E06DE370E027
:1033F000CE0101960E946D1989819A810E940C1359
:1034000063E070E0812F0E94A8198B830E9426132D
:103410008B810F900F900F90DF91CF911F910F91A3
:1034200008950F931F93CF93DF9300D0CDB7DEB7EE
:10343000182F00E021E040E059E06DE370E0CE019C
:1034400001960E946D1989819A810E940C1340E1B6
:1034500050E0612F8DE995E00E94FE1F6FEF812FF4
:103460000E94D3190E9426130F900F90DF91CF91E5
:103470001F910F910895CF92DF92EF92FF920F93D9
:103480001F93CF93DF9300D0CDB7DEB7182FD62E82
:103490007A01C22E8FEF860F8530A8F5812F0E940A
:1034A000111A00E021E040E059E06DE370E0CE0148
:1034B00001960E946D1989819A810E940C134D2DED
:1034C0004C2960E070E0812F0E94B619E114F104EC
:1034D00011F0B7010AC060919B0570919C056F5F68
:1034E0007F4F70939C0560939B05812F0E94C219AA
:1034F00041E050E0612F8DE995E00E94FE1F0E949F
:10350000261381E001C080E00F900F90DF91CF91F2
:103510001F910F91FF90EF90DF90CF9008950F9340
:103520001F93CF93DF9300D0CDB7DEB7182F00E005
:1035300021E040E059E06DE370E0CE0101960E9489
:103540006D1989819A810E940C1363E070E0812FCC
:103550000E94A819833121F00E94261380E00AC03E
:1035600042E050E0612F8DE995E00E94FE1F0E942D
:10357000261381E00F900F90DF91CF911F910F9153
:103580000895CF92DF92EF92FF920F931F93CF9304
:10359000DF9300D0CDB7DEB7182F7B016A01FB01A6
:1035A00080818F3F51F481818F3F99F482818F3FD9
:1035B00081F483818F3F69F430C081110AC0FB011F
:1035C0008181811106C08281811103C0838188239A
:1035D00021F1C114D10409F100E021E040E059E0FB
:1035E0006DE370E0CE0101960E946D1989819A8188
:1035F0000E940C13B701812F0E949F19B601812FE1
:103600000E94D81944E050E0612F8DE995E00E94B6
:10361000FE1F0E94261381E001C080E00F900F90F2
:10362000DF91CF911F910F91FF90EF90DF90CF909E
:1036300008950F931F93CF93DF9300D0CDB7DEB7DC
:10364000182F00E021E040E059E06DE370E0CE018A
:1036500001960E946D1989819A810E940C1348E09D
:1036600050E0612F8DE995E00E94FE1F0E94261315
:103670000F900F90DF91CF911F910F910895BF92FE
:10368000CF92DF92EF92FF920F931F93CF93DF932E
:1036900000D01F92CDB7DEB7B82E6B017A01413052
:1036A00088E0580718F0E12C98E0F92E00E021E0BE
:1036B00040E059E06DE370E0CE0101960E946D1983
:1036C00089819A810E940C136B2D8DE995E00E94EF
:1036D0006C1E8C0163E070E08B2D0E94A8198B8317
:1036E0000E9426138B81873111F08C3131F40E94B6
:1036F0006A200E151F05D0F202C0E12CF12C00E06B
:1037000021E040E059E06DE370E0CE0101960E94B7
:103710006D1989819A810E940C139701A6016B2D66
:103720008DE995E00E942B1F40E250E06B2D8DE962
:1037300095E00E94FE1F8B2D0E94B21984FD22C0CD
:1037400063E070E08B2D0E94A819811108C00E94CF
:1037500026138B2D0E94111A80E090E01AC00E945F
:1037600026130E946A2000E021E040E059E06DE36A
:1037700070E0CE0101960E946D1989819A810E94A4
:103780000C13D9CF60E18B2D0E94D3190E94261310
:10379000C7010F900F900F90DF91CF911F910F9164
:1037A000FF90EF90DF90CF90BF900895AF92BF92BF
:1037B000CF92DF92EF92FF920F931F93CF93DF93FD
:1037C00000D0CDB7DEB7182F5B016A0100E021E021
:1037D00040E059E06DE370E0CE0101960E946D1962
:1037E00089819A810E940C13612F8DE995E00E94D6
:1037F000A01E7C010097A1F463E070E0812F0E947D
:10380000A819843119F1882309F121E030E08C31C5
:1038100011F420E030E0EE24FF24E21AF30A16C08F
:10382000C816D9060CF476011E141F047CF400E0BF
:103830009701A501612F8DE995E00E94AE1F40E43C
:1038400050E0612F8DE995E00E94FE1F0E94261333
:10385000C7010F900F90DF91CF911F910F91FF90B3
:10386000EF90DF90CF90BF90AF9008950F931F938C
:10387000CF93DF9300D000D0CDB7DEB7182F00E094
:1038800021E040E059E06DE370E0CE0101960E9436
:103890006D1989819A810E940C13612F8DE995E041
:1038A0000E94A01E8B839C830E9426138B819C8187
:1038B0000F900F900F900F90DF91CF911F910F916C
:1038C0000895EF92FF920F931F93CF93DF9300D051
:1038D000CDB7DEB7182F7B0100E021E040E059E0D2
:1038E0006DE370E0CE0101960E946D1989819A8185
:1038F0000E940C1301E021E030E0A701612F8DE967
:1039000095E00E94AE1F0E94261381E090E00F9088
:103910000F90DF91CF911F910F91FF90EF9008953D
:1039200008959F92AF92BF92CF92DF92EF92FF9253
:103930000F931F93CF93DF9300D0CDB7DEB7982EB0
:103940006B015A01790100E021E040E059E06DE3AC
:1039500070E0CE0101960E946D1989819A810E94C2
:103960000C13692D8DE995E00E946C1E8E159F0544
:1039700030F4692D8DE995E00E946C1E7C01870171
:103980009501A601692D8DE995E00E94BC1E0E945B
:103990002613C7010F900F90DF91CF911F910F91C8
:1039A000FF90EF90DF90CF90BF90AF909F900895E1
:1039B000CF92DF92EF92FF920F931F93CF93DF93FB
:1039C00000D0CDB7DEB7182F7B016A01FB018081E3
:1039D000811109C08181811106C08281811103C0DA
:1039E00083818823F1F0C114D104D9F000E021E0F3
:1039F00040E059E06DE370E0CE0101960E946D1940
:103A000089819A810E940C13B701812F0E949F190E
:103A1000B601812F0E94D8190E94261381E090E000
:103A200002C080E090E00F900F90DF91CF911F9146
:103A30000F91FF90EF90DF90CF9008950F931F9319
:103A4000CF93DF9300D0CDB7DEB7182F00E021E091
:103A500040E059E06DE370E0CE0101960E946D19DF
:103A600089819A810E940C1340E250E0612F8DE918
:103A700095E00E94FE1F812F0E94B21984FD21C093
:103A8000812F0E94B21983FF09C068E1812F0E9433
:103A9000D3190E94261380E090E01BC00E942613D9
:103AA0000E946A2000E021E040E059E06DE370E010
:103AB000CE0101960E946D1989819A810E940C1392
:103AC000DACF60E1812F0E94D3190E94261381E092
:103AD00090E00F900F90DF91CF911F910F9108957B
:103AE0008EBD00000DB407FEFDCF8EB508952A9857
:103AF00008952A9A08951F93CF93DF9300D0CDB7EE
:103B0000DEB7182F6A8399830E94771D80EF0E9489
:103B1000701D9981892F0E94701D812F0E94701D38
:103B20006A81862F0E94701D0E94791D81E00F908E
:103B30000F90DF91CF911F910895CF93DF93EC0108
:103B40006CE271E080E090E00E94E4200E94E70ACD
:103B5000229A8091FB04882399F09FB7F894809172
:103B6000FB04813059F48DB38093F9042DB3809117
:103B7000FA04809582238DBB9FBF02C09093F90405
:103B800080E58CBD1DBC60E880E090E00E947B1D5C
:103B900065E58BE190E00E947B1D65E58AE190E0A0
:103BA0000E947B1D8091FB04882361F09FB7F894ED
:103BB0002091FB048091F904213019F48DBB9FBF43
:103BC00001C08FBF80E090E49983888380E090E615
:103BD0009987888780E098E49B838A8380E098E6D1
:103BE0009B878A8780E090E59D838C8380E090E7C7
:103BF0009D878C8780E098E59F838E8380E098E79F
:103C00009F878E87DF91CF910895CF92DF92EF92B9
:103C1000FF920F931F93CF93DF93EC017A018B01F7
:103C20006C01C40ED51ECC15DD05A1F00E94771DD8
:103C300080EF0E94701D8D2F0E94701D8C2F0E949E
:103C4000701D2196F80181918F010E94701D0E94C4
:103C5000791DE9CFC701DF91CF911F910F91FF909F
:103C6000EF90DF90CF9008951F93CF93DF931F9233
:103C7000CDB7DEB7182F99830E94771D8FE00E9481
:103C8000701D9981892F0E94701D812F0E94701DC7
:103C900080E00E94701D89830E94791D89810F90A8
:103CA000DF91CF911F9108951F93CF93DF93182F2A
:103CB00060E270E00E94A819C82FD0E061E270E0D5
:103CC000812F0E94A819DC2FCC279E01282BC90127
:103CD000DF91CF911F910895FF920F931F93CF9380
:103CE000DF93F62EC0E0D0E08F2D0E94541E8C0191
:103CF000009721F08F2D0E94541EEC01C017D107B0
:103D000099F7CE01DF91CF911F910F91FF90089508
:103D10001F93CF93DF93182F66E270E00E94A819DB
:103D2000C82FD0E067E270E0812F0E94A819DC2F35
:103D3000CC279E01282BC901DF91CF911F910895B7
:103D4000FF920F931F93CF93DF93F62EC0E0D0E046
:103D50008F2D0E94881E8C01009721F08F2D0E94CC
:103D6000881EEC01C017D10799F7CE01DF91CF91E2
:103D70001F910F91FF9008956F927F929F92AF9243
:103D8000BF92CF92DF92EF92FF920F931F93CF9348
:103D9000DF931F92CDB7DEB7D82E962E3A01590188
:103DA00064E270E0892D99830E94A819E82EF12C15
:103DB00065E270E0892D0E94A819FE2CEE24E82A05
:103DC000E60CF71C970137706D2C9981792E690CE0
:103DD000711C690C711CD301ED91FC91E20FF31F72
:103DE000C901800F911F81309840A0F0C12C48E09C
:103DF000D42EC21AD30AA601B501CF010E94051E16
:103E0000A8014C195D09B5016C0D7D1DF301808180
:103E1000918103C0A801B501CF010E94051EE00EEB
:103E2000F11E4F2D64E270E0892D0E94B6194E2DCF
:103E300065E270E0892D0F90DF91CF911F910F9176
:103E4000FF90EF90DF90CF90BF90AF909F907F90CA
:103E50006F900C94B6190F931F9389019A0140E05B
:103E600050E00E94BC1E1F910F910895CF92DF92E7
:103E7000EF92FF920F931F93CF93DF93EC017A01A0
:103E80008B016C01C40ED51ECC15DD05A9F00E9476
:103E9000771D8FE00E94701D8D2F0E94701D8C2F4A
:103EA0000E94701D219680E00E94701DF801819390
:103EB0008F010E94791DE8CFC701DF91CF911F913B
:103EC0000F91FF90EF90DF90CF900895AF92BF9247
:103ED000CF92DF92EF92FF920F931F93CF93DF93D6
:103EE00000D0CDB7DEB75A8349835901E981FA8101
:103EF000F7707C01E60EF11CE60EF11CD701189656
:103F00008D919C9119978E0F9F1F98012E0F3F1F27
:103F10002130384098F0C12C68E0D62ECE1ADF0A46
:103F2000A601B5010E94361FA8014C195D09B50113
:103F30006C0D7D1DF7018085918502C0A801B5013A
:103F40000F900F90DF91CF911F910F91FF90EF9005
:103F5000DF90CF90BF90AF900C94361F8F929F92BE
:103F6000AF92BF92CF92DF92EF92FF920F931F9387
:103F7000CF93DF936C01962E5A017901802E68E26F
:103F800070E0892D0E94A819C82FD0E069E270E086
:103F9000892D0E94A819DC2FCC27C82B87019501F9
:103FA000AE01692DC6010E94661F81101AC0CE0D98
:103FB000DF1D4D2F68E270E0892D0E94B6194C2F4D
:103FC00069E270E0892DDF91CF911F910F91FF90F1
:103FD000EF90DF90CF90BF90AF909F908F900C9418
:103FE000B619DF91CF911F910F91FF90EF90DF9065
:103FF000CF90BF90AF909F908F900895CF93C62F92
:1040000061E070E08C2F0E94B61961E070E08C2FA7
:104010000E94A8198111F9CFCF9108950F9300E064
:1040200020E040E060E08DEA95E00E940D240F91D1
:104030000C945D200F9300E020E040E060E083EB13
:1040400095E00E940D240F9108950F9300E020E069
:1040500040E060E089EB95E00E940D240F91089507
:104060000F9300E020E040E060E08FEB95E00E94DD
:104070000D240F9108950E94E70A61E08AE00E94F2
:10408000702160E087E00E94702161E089E00E9479
:10409000702160E08DE00E94A92160E08BE00E9429
:1040A000A92161E08AE00E94A92161E08AE00E94E2
:1040B000A92160E089E00C94A9210C943B200F9386
:1040C00000E020E040E060E085EC95E00E940D24F7
:1040D0000F91089508951F920F920FB60F92112419
:1040E0002F933F938F939F93AF93BF938091CC0572
:1040F0009091CD05A091CE05B091CF053091CB0523
:1041000023E0230F2D3720F40196A11DB11D05C01A
:1041100026E8230F0296A11DB11D2093CB058093A5
:10412000CC059093CD05A093CE05B093CF0580919B
:10413000D0059091D105A091D205B091D3050196FB
:10414000A11DB11D8093D0059093D105A093D205F8
:10415000B093D305BF91AF919F918F913F912F91D4
:104160000F900FBE0F901F9018952FB7F894609185
:10417000CC057091CD058091CE059091CF052FBFD4
:1041800008953FB7F8948091D0059091D105A09102
:10419000D205B091D30526B5A89B05C02F3F19F0D5
:1041A0000196A11DB11D3FBF6627782F892F9A2F39
:1041B000620F711D811D911D42E0660F771F881FE0
:1041C000991F4A95D1F70895CF92DF92EF92FF920F
:1041D000CF93DF936B017C010E94C120EB01C114DE
:1041E000D104E104F10489F00E946A200E94C120F8
:1041F0006C1B7D0B683E734090F381E0C81AD108B8
:10420000E108F108C851DC4FEACFDF91CF91FF9070
:10421000EF90DF90CF900895789484B5826084BD4C
:1042200084B5816084BD85B5826085BD85B58160BA
:1042300085BDEEE6F0E0808181608083E1E8F0E01A
:104240001082808182608083808181608083E0E849
:10425000F0E0808181608083E1EBF0E08081846028
:104260008083E0EBF0E0808181608083EAE7F0E02A
:10427000808184608083808182608083808181608E
:1042800080838081806880831092C100089583308C
:1042900081F028F4813099F08230A1F008958730C0
:1042A000A9F08830B9F08430D1F4809180008F7DFE
:1042B00003C0809180008F7780938000089584B53B
:1042C0008F7702C084B58F7D84BD08958091B00042
:1042D0008F7703C08091B0008F7D8093B0000895E8
:1042E000CF93DF9390E0FC01EA54FE4F2491FC0150
:1042F000E653FE4F8491882349F190E0880F991F7F
:10430000FC01EE50FE4FA591B49188519E4FFC01E7
:10431000C591D4919FB7611108C0F8948C912095F4
:1043200082238C93888182230AC0623051F4F894EE
:104330008C91322F309583238C938881822B8883B4
:1043400004C0F8948C91822B8C939FBFDF91CF9106
:1043500008950F931F93CF93DF931F92CDB7DEB7CE
:10436000282F30E0F901EE55FE4F8491F901EA540F
:10437000FE4F1491F901E653FE4F04910023C9F05A
:10438000882321F069830E9447216981E02FF0E0B2
:10439000EE0FFF1FE851FE4FA591B4919FB7F8941F
:1043A0008C91611103C01095812301C0812B8C93E6
:1043B0009FBF0F90DF91CF911F910F910895FC0146
:1043C000818D228D90E0805C9F4F821B91098F73BD
:1043D00099270895FC01918D828D981731F0828D77
:1043E000E80FF11D858D90E008958FEF9FEF089500
:1043F000FC01918D828D981761F0828DDF01A80FED
:10440000B11D5D968C91928D9F5F9F73928F90E00E
:1044100008958FEF9FEF08958CE793E2892B49F081
:1044200080E090E0892B29F00E947C2381110C947C
:1044300000000895FC01848DDF01A80FB11DA35A6F
:10444000BF4F2C91848D90E001968F739927848FB4
:10445000A689B7892C93A089B1898C9180648C93AB
:10446000938D848D981306C00288F389E02D808196
:104470008F7D80830895CF93DF93EC01888D88230F
:10448000C9F0EA89FB89808185FD05C0A889B989C1
:104490008C9186FD0FC00FB607FCF5CF808185FF9C
:1044A000F2CFA889B9898C9185FFEDCFCE010E940A
:1044B0001A22E7CFDF91CF910895CF92DF92FF923A
:1044C0000F931F93CF93DF931F92CDB7DEB76C018D
:1044D000DC015B969C915B975C968C915C97981342
:1044E00007C05096ED91FC915197808185FD32C0B7
:1044F000F601038D10E00F5F1F4F0F731127F02E91
:10450000F601848DF81211C00FB607FCF9CFD60161
:104510005096ED91FC915197808185FFF1CFC601B6
:1045200069830E941A226981EBCF838DE80FF11D08
:10453000E35AFF4F6083D6015B960C935B975296CC
:10454000ED91FC91539780818062808381E0589641
:104550008C930DC0D6015696ED91FC9157976083D0
:104560005096ED91FC91519780818064808381E029
:1045700090E00F90DF91CF911F910F91FF90DF900E
:10458000CF900895BF92CF92DF92EF92FF92CF9398
:10459000DF93EC016A017B01B22EE889F98982E0A0
:1045A0008083411581EE580761057105A1F060E037
:1045B00079E08DE390E0A70196010E940D2921503A
:1045C0003109410951095695479537952795211588
:1045D00080E1380798F0E889F989108260E874E88A
:1045E0008EE190E0A70196010E940D29215031092A
:1045F000410951095695479537952795EC85FD85D5
:104600003083EE85FF852083188EEC89FD89B0828A
:10461000EA89FB89808180618083EA89FB898081C6
:1046200088608083EA89FB89808180688083EA8949
:10463000FB8980818F7D8083DF91CF91FF90EF9008
:10464000DF90CF90BF9008951F920F920FB60F92F8
:1046500011242F938F939F93EF93FF93E091E405A1
:10466000F091E5058081E091EA05F091EB0582FD8E
:1046700012C090818091ED058F5F8F732091EE05C0
:10468000821751F0E091ED05F0E0EC52FA4F958F72
:104690008093ED0501C08081FF91EF919F918F91F3
:1046A0002F910F900FBE0F901F9018951F920F9291
:1046B0000FB60F9211242F933F934F935F936F93F5
:1046C0007F938F939F93AF93BF93EF93FF9384ED6B
:1046D00095E00E941A22FF91EF91BF91AF919F91B7
:1046E0008F917F916F915F914F913F912F910F909B
:1046F0000FBE0F901F90189584ED95E00E94DF216A
:1047000021E0892B09F420E0822F08951092D7052B
:104710001092D60588EE93E0A0E0B0E08093D80533
:104720009093D905A093DA05B093DB0585EE91E06F
:104730009093D5058093D40585EC90E09093E105A6
:104740008093E00584EC90E09093E3058093E2058C
:1047500080EC90E09093E5058093E40581EC90E097
:104760009093E7058093E60582EC90E09093E9054D
:104770008093E80586EC90E09093EB058093EA0542
:104780001092ED051092EE051092EF051092F005D3
:104790000895AF92BF92CF92DF92EF92FF920F9364
:1047A0001F93CF93DF936C017B01C0E0D0E000E06A
:1047B00010E0F601EC0FFD1F4AE050E06281C701F6
:1047C0000E9442255C016EE2C7010E9493248A0D7B
:1047D0009B1D080F191F2196C330D10551F74AE0E0
:1047E00050E0F6016581C7010E944225800F911FAC
:1047F000DF91CF911F910F91FF90EF90DF90CF90BD
:10480000BF90AF90089525EF31E0FC013183208304
:10481000128213821482158208950F93FC0185EF92
:1048200091E09183808362834383248305830F9186
:10483000089525EF31E0FC0131832083FB014081A5
:10484000518162817381FC01428353836483758348
:104850000895FB014081518162817381FC01428393
:10486000538364837583089585EF91E09093720676
:10487000809371061092730610927406109275065A
:1048800010927606089508950E940C210E944324F8
:104890000E940A02CCE0D2E20E941B042097E1F3BE
:1048A0000E940C22F9CFCF92DF92EF92FF920F93EA
:1048B0001F93CF93DF936C017A01EB01E60EF71E95
:1048C00000E010E0CE15DF0561F06991D601ED91B1
:1048D000FC910190F081E02DC6010995080F191F88
:1048E000F1CFC801DF91CF911F910F91FF90EF9011
:1048F000DF90CF9008956115710581F0DB010D9077
:104900000020E9F7AD0141505109461B570BDC016E
:10491000ED91FC910280F381E02D099480E090E01C
:1049200008950C947B24DC01ED91FC910190F081C1
:10493000E02D0994DB01ED91FC9111970190F0813C
:10494000E02DBC01CD0109940F931F93CF93DF930A
:10495000EC016DE00E9493248C016AE0CE010E947C
:104960009324800F911FDF91CF911F910F91089594
:104970000F931F93CF93DF93EC010E947B248C0154
:10498000CE010E94A424800F911FDF91CF911F912F
:104990000F9108950F931F93CF93DF93EC010E9423
:1049A0009A248C01CE010E94A424800F911FDF91D4
:1049B000CF911F910F9108958F929F92AF92BF92C6
:1049C000CF92DF92EF92FF920F931F93CF93DF93DB
:1049D000CDB7DEB7A1970FB6F894DEBF0FBECDBF3F
:1049E0007C01C42EE52FCB01D22E19A221E02D157A
:1049F00010F02AE0D22E8E010F5D1F4F8D2C912CCE
:104A0000A12CB12C6C2D7E2FA50194010E940D29A3
:104A10008C2DD29E80191124015011098A3014F472
:104A2000805D01C0895CF801808321153105410555
:104A3000510521F0C22EE32FCA01E4CFB801C7010E
:104A40000E947B24A1960FB6F894DEBF0FBECDBFA7
:104A5000DF91CF911F910F91FF90EF90DF90CF905A
:104A6000BF90AF909F908F9008952115310541F42C
:104A7000DC01ED91FC910190F081E02D642F09940F
:104A80000C94DC249A01462F50E060E070E00C9416
:104A900035250F931F93CF93DF93EC019A01462F97
:104AA00050E060E070E00E9435258C01CE010E944C
:104AB000A424800F911FDF91CF911F910F91089532
:104AC000CF93DF9300D000D0CDB7DEB79B01AC0110
:104AD000611571058105910569F069833A834B83FE
:104AE0005C830E94D82929813A814B815C810E9494
:104AF0002F2903C060E070E0CB010F900F900F9062
:104B00000F90DF91CF910895CF92DF92EF92FF92B5
:104B10006B017C01621773078407950764F4CA016F
:104B2000B9016C197D098E099F090E9460256C0DE1
:104B30007D1D8E1D9F1DFF90EF90DF90CF900895FB
:104B400070E09B01382BC90108955058BB27AA2754
:104B50000ED04DC13ED130F043D120F031F49F3F13
:104B600011F41EF433C10EF4E095E7FB29C1E92FDF
:104B70004FD180F3BA17620773078407950718F0BF
:104B800071F49EF567C10EF4E0950B2EBA2FA02D9F
:104B90000B01B90190010C01CA01A0011124FF27EA
:104BA000591B99F0593F50F4503E68F11A16F040E5
:104BB000A22F232F342F4427585FF3CF46953795E4
:104BC0002795A795F0405395C9F77EF41F16BA0BA9
:104BD000620B730B840BBAF09150A1F0FF0FBB1F57
:104BE000661F771F881FC2F70EC0BA0F621F731FA0
:104BF000841F48F4879577956795B795F7959E3FFD
:104C000008F0B3CF9395880F08F09927EE0F97958A
:104C1000879508950CD0EBC0E3D040F0DAD030F0A7
:104C200021F45F3F19F0CCC0511115C1CFC0F0D0B5
:104C300098F39923C9F35523B1F3951B550BBB2763
:104C4000AA2762177307840738F09F5F5F4F220F10
:104C5000331F441FAA1FA9F333D00E2E3AF0E0E809
:104C600030D091505040E695001CCAF729D0FE2F55
:104C700027D0660F771F881FBB1F261737074807E7
:104C8000AB07B0E809F0BB0B802DBF01FF2793589D
:104C90005F4F2AF09E3F510568F092C0DCC05F3F35
:104CA000ECF3983EDCF3869577956795B795F79585
:104CB0009F5FC9F7880F911D9695879597F908957D
:104CC000E1E0660F771F881FBB1F62177307840719
:104CD000BA0720F0621B730B840BBA0BEE1F88F728
:104CE000E095089504D06894B111B5C0089598D0A6
:104CF00088F09F5790F0B92F9927B751A0F0D1F0C5
:104D0000660F771F881F991F1AF0BA95C9F712C04E
:104D1000B13081F09FD0B1E008959CC0672F782F0B
:104D20008827B85F39F0B93FCCF3869577956795BA
:104D3000B395D9F73EF490958095709561957F4F26
:104D40008F4F9F4F0895E89409C097FB3EF49095CC
:104D50008095709561957F4F8F4F9F4F9923A9F054
:104D6000F92F96E9BB279395F695879577956795E3
:104D7000B795F111F8CFFAF4BB0F11F460FF1BC027
:104D80006F5F7F4F8F4F9F4F16C0882311F096E9BA
:104D900011C0772321F09EE8872F762F05C0662368
:104DA00071F096E8862F70E060E02AF09A95660F21
:104DB000771F881FDAF7880F9695879597F90895DA
:104DC00097F99F6780E870E060E008959FEF80ECBE
:104DD000089500240A941616170618060906089561
:104DE00000240A9412161306140605060895092EC7
:104DF0000394000C11F4882352F0BB0F40F4BF2B36
:104E000011F460FF04C06F5F7F4F8F4F9F4F089575
:104E100057FD9058440F551F59F05F3F71F047956B
:104E2000880F97FB991F61F09F3F79F08795089550
:104E3000121613061406551FF2CF4695F1DF08C06F
:104E4000161617061806991FF1CF8695710561058C
:104E500008940895E894BB2766277727CB0197F934
:104E600008950BD0C4CFB5DF28F0BADF18F0952332
:104E700009F0A6CFABCF1124EECFCADFA0F3959FE8
:104E8000D1F3950F50E0551F629FF001729FBB2731
:104E9000F00DB11D639FAA27F00DB11DAA1F649FDD
:104EA0006627B00DA11D661F829F2227B00DA11D90
:104EB000621F739FB00DA11D621F839FA00D611D16
:104EC000221F749F3327A00D611D231F849F600D37
:104ED000211D822F762F6A2F11249F5750408AF070
:104EE000E1F088234AF0EE0FFF1FBB1F661F771FFC
:104EF000881F91505040A9F79E3F510570F060CF38
:104F0000AACF5F3FECF3983EDCF3869577956795E3
:104F1000B795F795E7959F5FC1F7FE2B880F911D19
:104F20009695879597F90895FA01EE0FFF1F309631
:104F30002105310599F16115710561F48038BFE3F0
:104F40009B0749F168949038810561F08038BFEF84
:104F50009B0741F0992342F5FF3FE105310521050B
:104F600011F1E8940894E795D901AA2329F4AB2F0D
:104F7000BE2FF85FD0F310C0FF5F70F4A695E0F786
:104F8000F73950F019F0FF3A38F49F779F930CD01F
:104F90000F9007FC905808953EF018CF60E070E045
:104FA00080E89FE308954FE79F775F934F933F9388
:104FB0002F939ED02F913F914F915F9152DF05C06B
:104FC00019F40EF0FDCE46CF01CF2ADFC8F3963894
:104FD000C0F707F80F92E8942BE33AEA48EB5FE753
:104FE0004EDF0F920F920F924DB75EB70F92C0D067
:104FF000E0E9F0E016D04F915F91EF91FF91E595D8
:10500000EE1FFF1F49F0FE57E0684427EE0F441FD4
:10501000FA95E1F74195550B32D00F9007FE26C067
:105020000895DF93CF931F930F93FF92EF92DF9238
:105030007B018C01689405C0DA2EEF011EDFFE01B2
:10504000E894A5912591359145915591AEF3EF01E5
:105050008EDDFE019701A801DA9479F7DF90EF90D9
:10506000FF900F911F91CF91DF9108959B01AC01AB
:1050700060E070E080E89FE3CDCDA2CEACC0D0DE92
:10508000E8F39923D9F3940F511DBBF3915050408D
:1050900094F059F0882332F0660F771F881F9150E3
:1050A0005040C1F79E3F510544F7880F911D9695DA
:1050B000879597F908955F3FACF0983E9CF0BB2729
:1050C000869577956795B79508F4B1609395C1F784
:1050D000BB0F58F711F460FFE8CF6F5F7F4F8F4F22
:1050E0009F4FE3CFB8CE0EF076C070CE689468CEF6
:1050F00097DEC8F39923D1F3C6F3DF93CF931F93C1
:105100000F93FF92C92FDD2788232AF02197660F7E
:10511000771F881FDAF720E030E040E85FEB9FE37D
:10512000883920F0803E30F021968F770FDDE8EB54
:10513000F0E003C00BDDE5EEF0E073DF8B01BE01B4
:10514000EC01FB2E6F5771097595771F880B990B32
:10515000FCDD28E132E741E35FE38FDEAF2D98010C
:10516000AE01FF900F911F91CF91DF9100DD3FCEF7
:10517000FA01DC01AA0FBB1F9B01AC01BF5728F449
:1051800022273327442750781FC0B75188F4AB2F0C
:105190000024469537952795011CA395D2F300204E
:1051A00069F0220F331F441FB395DAF30DD0CDCC35
:1051B00061307105A0E88A07B94630F49B01AC0163
:1051C0006627772788279078309621F020833183CF
:1051D0004283538308959F3F31F0915020F4879587
:1051E00077956795B795880F911D9695879597F94F
:1051F000089597FB072E16F4009407D077FD09D089
:105200000E94662907FC05D03EF4909581959F4F3A
:105210000895709561957F4F0895A1E21A2EAA1BFB
:10522000BB1BFD010DC0AA1FBB1FEE1FFF1FA21756
:10523000B307E407F50720F0A21BB30BE40BF50B53
:10524000661F771F881F991F1A9469F760957095DC
:10525000809590959B01AC01BD01CF010895052E6D
:1052600097FB1EF400940E94462957FD07D00E9428
:105270000D2907FC03D04EF40C9446295095409517
:10528000309521953F4F4F4F5F4F089590958095F2
:10529000709561957F4F8F4F9F4F0895EE0FFF1FC1
:1052A0000590F491E02D09946927962769277827BE
:1052B0008727782708950E947A29A59F900DB49F8B
:1052C000900DA49F800D911D11240895AA1BBB1B56
:1052D00051E107C0AA1FBB1FA617B70710F0A61BF6
:1052E000B70B881F991F5A95A9F780959095BC0117
:1052F000CD010895A29FB001B39FC001A39F700D7F
:10530000811D1124911DB29F700D811D1124911DCD
:1053100008958F929F92AF92BF92CF92DF92EF92B9
:10532000FF92CF93DF93EC01688179818A819B8121
:10533000611571058105910521F464E279ED8BE534
:1053400097E02DE133EF41E050E00E942F29490121
:105350005A019B01AC01A7EAB1E40E945B296B01F1
:105360007C01ACEEB4EFA50194010E94FD29C60EAC
:10537000D71EE81EF91EF7FE06C081E0C81AD10844
:10538000E10880E8F80AC882D982EA82FB82C70174
:10539000B6019F77DF91CF91FF90EF90DF90CF9094
:1053A000BF90AF909F908F9008950E948929089593
:1053B00080E091E00E948929089560930001709334
:1053C000010180930201909303010895FB01DC0128
:1053D00004C08D910190801921F441505040C8F7CC
:1053E000881B990B0895FB01DC0101900D920020B0
:1053F000E1F70895B7FF0C945B290E945B29821B9B
:10540000930B089512E0CAE1D2E004C0FE010E94AD
:0E54100050292296CC31D107C9F7F894FFCF6E
:10541E000100000000C090A2DA0051064950204160
:10542E006464726573733A20004E6F2072657370F8
:10543E006F6E73652066726F6D204B616D73747243
:10544E00757020756E6974004D697373696E67208F
:10545E006573636170652000435243206572726FFD
:10546E00723A20003C0050005600570059004A0086
:10547E004B004400450048004900540055006300AD
:10548E0092009300950096007F00800000000000BF
:10549E0066055324A6046B048C04BE0457495A6E49
:1054AE0065740000000000271450146A14731491E0
:1054BE0014B4143015B8148D148D15CE153D144535
:1054CE00141D1400000000FD15C316131600000075
:1054DE0000B617FF17B21713185918CC177218DE2B
:1054EE0017F3170419FB179F183C1897179E17AE42
:1054FE0017000000005D225324DF21F821EA213B32
:08550E002200000000C9230087
:00000001FF
