:100000000C940E010C9436010C9436010C94D4051A
:100010000C94F8050C941C060C9436010C943601D3
:100020000C9436010C9436010C9436010C94360174
:100030000C9436010C9436010C9436010C94360164
:100040000C94F0230C9436010C94DC260C940E27AF
:100050000C9436010C9436010C9436010C94360144
:100060000C9436010C9436013104460446044604CF
:1000700046043104310431043104310431043104C3
:10008000310431044604460446044604310446045F
:1000900007634236B79BD8A71A39685618AEBAAB71
:1000A000558C1D3CB7CC5763BD6DEDFD753EF61705
:1000B0007231BF000000803F08000000BE9224495A
:1000C000123EABAAAA2ABECDCCCC4C3E000000808A
:1000D000BEABAAAAAA3E00000000BF000000803FFD
:1000E0000000000000084178D3BB4387D1133D19BD
:1000F0000E3CC3BD4282AD2B3E68EC8276BED98FEA
:10010000E1A93E4C80EFFFBE01C4FF7F3F0000002D
:10011000000000C201000100110011000C0000E10C
:1001200000000A00250025002100009600001900AB
:10013000390039003600127A00001F0046004600E0
:1001400044008070000022004D004D004A00004B2A
:1001500000003600750075007200403800004A004B
:100160009C009C009900802500007200EC00EC00CF
:10017000E900C0120000E900DA01DA01D7016009E4
:100180000000D701B603B603B303B0040000B30305
:100190006E076E076B072C010000DC0EC11DC11D30
:1001A000BE1D00000008000201000003040700005B
:1001B000000000000000010204081020408001023D
:1001C000040810200102040810200404040404049C
:1001D00004040202020202020303030303030000F9
:1001E0000000230026002900000000002500280050
:1001F0002B0000000000240027002A004D02B50754
:10020000540B61100E141C142714FD15661B5A1D87
:10021000981EA31EE4233E27EC27620211241FBE72
:10022000CFEFD8E0DEBFCDBF12E0A0E0B1E0EEE856
:10023000FBE502C005900D92AE30B107D9F726E07C
:10024000AEE0B2E001C01D92AA39B207E1F711E0B9
:10025000CAE1D2E004C02297FE010E94082DCC3FE3
:10026000D107C9F70E94FC270C94BA2D0C9400000A
:10027000CF92DF92EF92FF921F93CF93DF9300D044
:1002800000D0CDB7DEB7FB0120812F3309F060C06D
:100290002181203109F05CC0DC01AA0FBB1FA65AE6
:1002A000BE4F8D919C91428150E0292F33274217F8
:1002B000530709F04DC0238130E0992728173907EB
:1002C00009F046C0258130E0DF01179680E090E01C
:1002D000C12CD12C76018217930744F4FE2CED2C0F
:1002E000DC2CCC244D91C42A0196F5CF1681612FC8
:1002F0006F7370E016FF03C07195619571098827CF
:1003000077FD8095982F0E945D2A9B01AC0160E0EB
:1003100070E080E291E40E944C2B9B01AC0117FD40
:100320005058C701B60129833A834B835C830E94EE
:100330005D2A29813A814B815C810E94E92A20E073
:1003400030E048EC52E40E94E92A0E942A2A03C0C5
:1003500060E070E0CB010F900F900F900F90DF9155
:10036000CF911F91FF90EF90DF90CF9008950F9362
:100370001F93CF93DF939B01FC01280F391F60E08F
:1003800070E0CB01E217F307E9F0C191D0E0A8E0FB
:10039000B0E040E850E0660F771F881F991F8A0180
:1003A0000C231D23012B09F061605595479580FFB3
:1003B00006C08827992711E2612710E1712711975C
:1003C00051F7E0CFDF91CF911F910F910895CF9317
:1003D000DF9300D000D000D0CDB7DEB763E875E082
:1003E000CE0101960E94E61362E171E087EF95E08D
:1003F0000E944928BE016F5F7F4F87EF95E00E9402
:10040000822826960FB6F894DEBF0FBECDBFDF91CF
:10041000CF910895CF93DF9300D000D000D0CDB717
:10042000DEB726E040E855E260E070E087EF95E057
:100430000E947A2661E08DE00E94FF2460E08DE05A
:100440000E94382560E085E00E94FF2461E086E09C
:100450000E94FF2440EB54E060E070E08EE092E008
:100460000E94BE0686E0ECE0F1E0DE01119601900C
:100470000D928A95E1F7BE016F5F7F4F83E895E0AB
:100480000E944B130E94E70126960FB6F894DEBF38
:100490000FBECDBFDF91CF9108950F9300E020E014
:1004A00040E060E089EB94E00E94C5278EE292E094
:1004B0000E94960721E046E065E08EE092E00F9111
:1004C0000C948E068EE092E00C948F078F929F9290
:1004D000AF92BF92CF92DF92EF92FF920F931F9352
:1004E000CF93DF93CDB7DEB764970FB6F894DEBF36
:1004F0000FBECDBFADB6BEB68B010F5F1F4F9801CB
:100500002F5F3F4F4DB75EB7421B530B0FB6F894AA
:100510005EBF0FBE4DBFEDB7FEB731966F01DF0175
:10052000FC019F01281B390B261737071CF421916A
:100530002D93F7CF7601E60EF71EF70110824B01DF
:10054000F2E08F0E911C0C0D1D1DF8011082B401FC
:10055000C6010E94B701F7017083F80160839E0114
:100560002F5F3F4F790184E1F90111928A95E9F7F4
:1005700080E88983F60101E010E03BE1CF018C19AE
:100580009D098815990504F52081C801019626303A
:1005900041F02D3031F02B3121F0203411F0203892
:1005A00061F4D701A00FB11F3C930E5F1F4FD7011D
:1005B000A80FB91F20952C9305C0D701A00FB11F1C
:1005C0002C938C013196DACF8DE0F701E00FF11F0B
:1005D00080836701F60161916F018EE092E00E94D5
:1005E0006605C6018E199F09081719079CF70FB6F3
:1005F000F894BEBE0FBEADBE64960FB6F894DEBFD3
:100600000FBECDBFDF91CF911F910F91FF90EF9063
:10061000DF90CF90BF90AF909F908F9008956F9292
:100620007F928F929F92AF92BF92CF92DF92EF9282
:10063000FF920F931F93CF93DF93CDB7DEB7E3976E
:100640000FB6F894DEBF0FBECDBF8C012BAB0E945E
:100650003A244B015C018EE092E00E94BE04C12C62
:10066000D12C76012BA92D3041F10E943A24681932
:1006700079098A099B096D3271408105910518F04D
:100680006FE171E071C08EE092E00E94A604892BB8
:1006900061F38EE092E00E946B04282F803429F3EE
:1006A000E1E0F0E0EC0FFD1FEC0DFD1D80838FEF0E
:1006B000C81AD80AE80AF80AD6CF4801A12CB12CEA
:1006C000E1E0CE1AD108E108F1083401601A710A9C
:1006D000C501A0E0B0E08C159D05AE05BF05D0F5C5
:1006E000E1E0F0E0EC0FFD1FEA0DFB1D80818B3196
:1006F00041F5FFEFAF1ABF0AE1E0F0E0EC0FFD1F9C
:10070000EA0DFB1D208120952630C1F02D30B1F07F
:100710002B31A1F0203491F0203881F06EE371E0AC
:1007200087EF95E02BAB0E94492840E150E02BA9D0
:10073000622F87EF95E00E9401292BA9F401208305
:1007400002C0F4018083FFEFAF1ABF0A2FEF821AB5
:10075000920ABBCFB301C8010E94B701672B682B77
:10076000692B49F06EE471E087EF95E00E947028F4
:1007700080E090E001C0C301E3960FB6F894DEBFBD
:100780000FBECDBFDF91CF911F910F91FF90EF90E2
:10079000DF90CF90BF90AF909F908F907F906F90A1
:1007A00008950F931F93CF93DF93CDB7DEB7AD9727
:1007B0000FB6F894DEBF0FBECDBF8C01CE01899677
:1007C00025E0FC0111922A95E9F72FE329A720E102
:1007D0002AA721E02BA7F801EE0FFF1FE65AFE4FD4
:1007E000208131813CA72DA765E070E00E94660260
:1007F000CE0101960E940F03892B39F0BE016F5F75
:100800007F4FC8010E9438010BC00D30110529F43B
:1008100062E070E080E090E003C060E070E0CB0157
:10082000AD960FB6F894DEBF0FBECDBFDF91CF916E
:100830001F910F91089580912C0290912D020E949A
:10084000D10340912C0250912D024431510528F5DD
:10085000FA01EC5CFF4F20912A0230912B020C949C
:10086000062DF901EE0FFF1FE25DFD4F918380839E
:100870002F5F3F4FF901EE0FFF1FE25DFD4F7183C8
:10088000608330932B0220932A0207C0F901EE0FF8
:10089000FF1FE25DFD4F718360834F5F5F4F509399
:1008A0002D0240932C0280912A0290912B020196F6
:1008B00090932B0280932A024431510544F0109208
:1008C0002D0210922C0210922B0210922A028EE21C
:1008D00092E00C94C507209101053091020528177C
:1008E0003907B9F49091BF048091C004981789F03A
:1008F000E091BF04F0E0EF53FB4F80812091BF04F3
:1009000030E02F5F3F4F2F7333272093BF0490E0D9
:1009100008958FEF9FEF0895209101053091020512
:100920002817390781F49091BF048091C00498176B
:1009300051F0E091BF04F0E0EF53FB4F8081992725
:1009400087FD909508958FEF9FEF08952091010501
:10095000309102052817390771F48091C004209165
:10096000BF0490E0805C9F4F821B910960E470E0BF
:100970000E94B12C089580E090E008952091010537
:10098000309102052817390739F48FB7F89410927F
:10099000C0041092BF048FBF0895DC015196ED9101
:1009A000FC915297208150968C9180958223808370
:1009B000089520E001972FEF8F3F9207D9F7089510
:1009C00020910105309102052817390789F0FC01B3
:1009D000238D2E7F238F2FB7F8941092C00410928E
:1009E000BF0490930205809301052FBF81E0089515
:1009F00080E00895EF92FF920F931F93CF93DF93C0
:100A0000EC018B8DEE85FF859D8581FF04C0808183
:100A1000892329F045C08081892309F441C08B894D
:100A20009C890E94D90408E010E0EE24E394F12CA4
:100A30008D899E890E94D904EE85FF8580819D85E0
:100A4000892311F0FE2803C08E2D8095F822EE0C2C
:100A50000150110969F78F89988D0E94D9048B8DF7
:100A600081FFF0948091C0042091BF0490E0019632
:100A70008F73992730E08217930779F0E091C004D3
:100A8000F0E0EF53FB4FF0828091C00490E00196BC
:100A90008F7399278093C00403C08B8D81608B8FE7
:100AA000DF91CF911F910F91FF90EF900895611109
:100AB00002C00C94CD04DC015196ED91FC9152974B
:100AC000208150968C91282B20830895DF92EF92FD
:100AD000FF920F931F93CF93DF93EC01E62E898D46
:100AE0009A8D892B39F481E090E09B838A8380E0A2
:100AF00090E049C0DFB6F8946B8D66956170CE01C9
:100B00000E945705898D9A8D05960E94D9048B8D78
:100B100008E010E0FF24F39481FF17C08F2D8E2191
:100B200021F0CE010E94CD0404C061E0CE010E94FC
:100B30005705898D9A8D0E94D904FF0C0150110927
:100B400069F7CE010E94CD0417C08F2D8E2129F0A8
:100B500061E0CE010E94570503C0CE010E94CD0482
:100B6000898D9A8D0E94D904FF0C0150110969F7F3
:100B700061E0CE010E945705DFBE898D9A8D0E94EB
:100B8000D90481E090E0DF91CF911F910F91FF9008
:100B9000EF90DF90089580910105909102050097F4
:100BA00011F00C94FA0408951F920F920FB60F9251
:100BB00011242F933F934F935F936F937F938F9362
:100BC0009F93AF93BF93EF93FF930E94CB05FF9149
:100BD000EF91BF91AF919F918F917F916F915F91B5
:100BE0004F913F912F910F900FBE0F901F9018952E
:100BF0001F920F920FB60F9211242F933F934F9392
:100C00005F936F937F938F939F93AF93BF93EF9374
:100C1000FF930E94CB05FF91EF91BF91AF919F9100
:100C20008F917F916F915F914F913F912F910F9095
:100C30000FBE0F901F9018951F920F920FB60F9234
:100C400011242F933F934F935F936F937F938F93D1
:100C50009F93AF93BF93EF93FF930E94CB05FF91B8
:100C6000EF91BF91AF919F918F917F916F915F9124
:100C70004F913F912F910F900FBE0F901F9018959D
:100C80001F93CF93DF93EC01162F61E0812F0E9419
:100C9000FF2461E0812F0E943825812F90E0FC0124
:100CA000EA54FE4FE491E88BFC01E653FE4FE491D9
:100CB000F0E0EE0FFF1FE851FE4F859194919A8B63
:100CC000898BDF91CF911F9108951F93CF93DF936D
:100CD000EC01162F60E0812F0E94FF248B8D81FF95
:100CE00004C061E0812F0E9438251C87812F90E08D
:100CF000FC01EA54FE4FE491ED87FC01E653FE4F00
:100D0000E491F0E0EE0FFF1FE252FE4F85919491C7
:100D10009F878E87DF91CF911F910895FF920F9348
:100D20001F93CF93DF93EC01F62E522F1B821A8272
:100D300008EE13E020E030E00C831D832E833F8318
:100D400086E891E0998388831C8A1B8A1E8A1D8A03
:100D5000188E1F8A1A8E198E8B8D8E7F50FB81F90B
:100D60008B8F642FCE010E9440066F2DCE01DF9144
:100D7000CF911F910F91FF900C9465060F931F93D5
:100D8000CF93DF93EC011A8E198E188E1F8A1E8A5C
:100D90001D8AA2E1B1E080E090E0FD01059115918E
:100DA00025913491041715072607370709F031C03C
:100DB0002CE0289FF001299FF00D1124EA5EFE4FE0
:100DC000259134913C8B2B8B2CE0289FF001299F9F
:100DD000F00D1124E85EFE4F259134913E8B2D8B52
:100DE0002CE0289FF001299FF00D1124E65EFE4FB4
:100DF00025913491388F2F8B2CE0289FF001299F6B
:100E0000F00D1124E45EFE4F859194919A8F898FA5
:100E100008C001961C968C30910509F0BECF1C8A43
:100E20001B8A8F89988D892B09F443C08C85863164
:100E3000E0F520916800883050F091E08E3008F4A1
:100E400090E081E001C0880F9A95EAF701C084E044
:100E5000822B809368002C85283038F02E3040F0AB
:100E6000263148F0E0E0F0E008C0EDE6F0E005C033
:100E7000EBE6F0E002C0ECE6F0E03081283030F440
:100E800081E001C0880F2A95EAF70DC0822F90E01B
:100E90002E3010F4089701C00E9791E001C0990F11
:100EA0008A95EAF7892F832B8083898D9A8D0E94FA
:100EB000D904CE01DF91CF911F910F910C94E004E2
:100EC000FC014485463150F5483028F04E3030F46E
:100ED000EBE6F0E005C0EDE6F0E002C0ECE6F0E0A5
:100EE0005081483040F481E090E0042E01C0880F2A
:100EF0000A94EAF710C0242F30E04E3018F428503E
:100F0000310902C02E50310981E090E0022E01C06B
:100F1000880F0A94EAF7809585238083089526E850
:100F200031E0FC01318320830C9460070895613027
:100F3000710519F06330710531F4FC01E757FD4F7D
:100F40007183608309C06530710549F066307105B1
:100F500031F06F30710519F06031710529F4FC0131
:100F6000E757FD4F7183608308950F9300E020E001
:100F700040E060E08BE095E00E94C52766EF71E0FD
:100F800083E095E00F910C94F91D4F925F926F9260
:100F90007F928F929F92AF92BF92EF92FF920F93A8
:100FA0001F93CF93DF93CDB7DEB72F970FB6F8948B
:100FB000DEBF0FBECDBF8C01FC01E158FE4F40816A
:100FC000518121E030E0473E83E0580714F020E0F3
:100FD00030E0429FC001439F900D529F900D11241D
:100FE00001969183808340E050E063E075E0CE019C
:100FF00001960E94031ECE0101960E94F11B892BCF
:1010000009F443C0F801EF57FE4F4081518121E0C0
:1010100030E0473E83E0580714F020E030E0429F84
:10102000C001439F900D529F900D11240196918312
:1010300080837801CE0101960E94F11BEFEFEE1A3A
:10104000FE0A892B49F0CE0101960E94FA1BF70196
:10105000EC57FE4F8083EECFF801E457FE4F6081DE
:1010600070E0C8010E949707F801E658FE4F8081A2
:1010700081110BC081E080830E943A24F801E55879
:10108000FE4F60837183828393830E943A24F80128
:10109000E558FE4F80809180A280B380F0E68F0EED
:1010A000FAEE9F1EA11CB11C86169706A806B9066B
:1010B00030F4F801E658FE4F8081811110827801EA
:1010C00027E7E21A2DEFF20AF7018081918101975B
:1010D00009F096C05801F3E7AF1AFEEFBF0AF80116
:1010E000E257FE4F6081F50180810E9458294C0132
:1010F000F801E057FE4F6081319780810E945829A6
:101100009C01AC0197FF02C0495F5F4FF3E055952A
:101110004795FA95E1F7CA01A3E0880F991FAA95B0
:10112000E1F78217930714F44F5F5F4FF801E6571A
:10113000FE4F83E0840F8083F5014083C801880D52
:10114000991DB801812C912C540183949B01201B83
:10115000310B241735078CF520E030E0FB01E25716
:10116000FE4FDC01A20FB31FA650BF4FAC91AA23C4
:1011700069F0A08124013501022E04C0440C551CE5
:10118000661C771C0A94D2F7A4290DC024013501EE
:10119000022E04C0440C551C661C771C0A94D2F71E
:1011A0004094A081A421A0832F5F3F4F28303105B8
:1011B000C1F66F5F7F4F0896C9CF475F5F4FB80199
:1011C0006B577E4FCE0101960E945C1CF801ED57D3
:1011D000FE4F4081518121E030E0473E83E05807D7
:1011E00014F020E030E0429FC001439F900D529FD9
:1011F000900D1124019691838083F7011182108252
:10120000F70180819181039709F05CC0F801E257F2
:10121000FE4F60815801F3E7AF1AFEEFBF0AF501F8
:1012200080810E9458294C01F801E057FE4F6081EF
:10123000319780810E945829AC01440F551FF80155
:10124000E657FE4F23E0240F2083F50140839801E9
:10125000880C991C60E070E06817790784F4F90144
:10126000E80DF91DA081B181F901E257FE4FB0836D
:101270003196A0836F5F7F4F2E5F3F4FEDCF475F6B
:101280005F4FB8016B577E4FCE0101960E945C1CE8
:10129000F801ED57FE4F4081518121E030E0473E9B
:1012A00083E0580714F020E030E0429FC001439FE4
:1012B000900D529F900D1124019691838083F70128
:1012C00011821082F70180819181059709F043C056
:1012D000F801E257FE4F6081319780810E945829C2
:1012E0005C01F801E057FE4F6081319780810E94D8
:1012F0005829A00EB11EF501E650FF4F21E0892BC1
:1013000009F420E0208382E0F801E657FE4F808355
:1013100048E050E0B8016B577E4FCE0101960E9425
:101320005C1CF801ED57FE4F4081518121E030E017
:10133000473E83E0580714F020E030E0429FC001B0
:10134000439F900D529F900D1124019691838083AD
:10135000F70111821082F70180819181069709F0CF
:1013600040C0F801E257FE4F6081319780810E94B2
:1013700058295C01F801E057FE4F60813197808168
:101380000E945829F501EE0FFF1FE00FF11F918316
:10139000808386E0F801E657FE4F80834CE050E002
:1013A000B8016B577E4FCE0101960E945C1CF8017C
:1013B000ED57FE4F4081518121E030E0473E83E010
:1013C000580714F020E030E0429FC001439F900D89
:1013D000529F900D1124019691838083F701118211
:1013E0001082F701808191810F9709F07AC0F8018E
:1013F000E257FE4F6081319780810E9458295C013D
:10140000F801E057FE4F6081319780810E94582992
:101410009C01AC0197FF02C0495F5F4F63E05595A7
:1014200047956A95E1F7CA0173E0880F991F7A958D
:10143000E1F78217930714F44F5F5F4FF801E65707
:10144000FE4F85E0840F8083C8018A0D9B1D60E0FC
:1014500070E06417750714F5F801E60FF71FEE56F4
:10146000FE4FE0818E2E912C20E030E0DC01A20FB7
:10147000B31FA650BF4F5401022E02C0B594A794CB
:101480000A94E2F7FA2DF170FC932F5F3F4F28305A
:10149000310561F76F5F7F4F0896DBCF4CE050E07E
:1014A000B8016B577E4FCE0101960E945C1CF8017B
:1014B000ED57FE4F4081518121E030E0473E83E00F
:1014C000580714F020E030E0429FC001439F900D88
:1014D000529F900D1124019691838083F701118210
:1014E0001082F70180819181409709F05AC0F8017C
:1014F000E257FE4F6081319780810E9458294C014C
:10150000F801E057FE4F6081319780810E94582991
:101510002C01F801E657FE4F880F991F8D5F8083DD
:101520005801880C991C612C712C64147504B4F456
:10153000D501AD56BE4FF501EE56FE4F6C91808140
:101540000E945829F501E80DF91D91838083FFEF72
:101550006F1A7F0A22E0A20EB11CE7CFB8016B57C9
:101560007E4F4CE050E0CE0101960E945C1CF801D9
:10157000ED57FE4F4081518121E030E0473E83E04E
:10158000580714F020E030E0429FC001439F900DC7
:10159000529F900D1124019691838083F70111824F
:1015A00010822F960FB6F894DEBF0FBECDBFDF912D
:1015B000CF911F910F91FF90EF90BF90AF909F90B0
:1015C0008F907F906F905F904F900895CF93CFB79B
:1015D000F89480911405811116C061E08AE00E94A0
:1015E000382561E08AE00E94FF248CB580618CBDC3
:1015F0008CB580648CBD61E08DE00E94FF2461E0C9
:101600008BE00E94FF24809114058F5F8093140566
:10161000CFBFCF9108950E9624E1FC0111922A9537
:10162000E9F70895CF93DF93EC01625F7F4F0E944B
:10163000D127CE01DF91CF910895CF93DF93EC01B5
:101640006E5E7F4F0E94D127CE01DF91CF9108952A
:10165000CF93DF93EC016A5E7F4F0E94D127CE01CA
:10166000DF91CF910895CF93DF93EC01625E7F4FBE
:101670000E94D127CE01DF91CF91089580E3FB0135
:1016800080833296842F82958F7090E1899F4019D4
:1016900011244A3014F4405D01C0495C4293882310
:1016A00011F0482FEFCF08950F9300E020E040E0C5
:1016B00060E085E195E00E94C5270F9108956F9243
:1016C0007F928F929F92AF92BF92CF92DF92EF92D2
:1016D000FF920F931F93CF93DF93CDB7DEB7AC97F5
:1016E0000FB6F894DEBF0FBECDBF7C01862EB42EA0
:1016F000A52E20E2922ECE0101966C01FC01292D2F
:1017000011922A95E9F70FEF2FEF4FEF6FEF8696C3
:101710000E94C5278BE092E09AA389A389A59AA588
:10172000ABA5BCA58BA39CA3ADA3BEA38701095BFE
:101730001F4F43E450E0BE016F5D7F4FC8010E9420
:101740008E14019609F4BFC081E089838A8386E004
:10175000782E7B821C82F701648175818681978156
:101760000E940C2D6D837E838F839887A986BA860D
:1017700080E890E09C878B874CE150E0B601C8017F
:101780000E949A14F601292D11922A95E9F7570122
:1017900088E0A80EB11CF501D60101900D927A9453
:1017A000E1F740E150E0B601C8010E949A14F60149
:1017B00011929A94E9F796E0692E712C40E250E07C
:1017C000B601C8010E949A14F1E06F1A7108B1F7CE
:1017D00083E6898392E89A8393E59B838C8385E3F0
:1017E0008D8381E08E838F829DE3988797E0998730
:1017F0008A8786E0F501DE011B9601900D928A959D
:10180000E1F78CE0898B8A8B62E971E0CE01439627
:101810000E94AB2DF7014385BE01675E7F4FC70174
:101820000E943E0BF7014485BE01655E7F4FC701F4
:101830000E943E0BF7014585BE01635E7F4FC701E5
:101840000E943E0B4EE150E0B601C8010E949A147E
:10185000F3E08F121EC082E3898384E08A83F7015C
:1018600096859B8397859C8390899D8391899E8390
:1018700096E39F838887828D8987838D8A87848D6D
:101880008B87858D8C874CE050E0B601C8010E94A3
:101890009A1487E3898386E08A8391E09B8393E0AF
:1018A0009C838D838FE08E838AE38F838BE388878D
:1018B0008FEF898749E050E0B601C8010E949A1471
:1018C000C8010E949614AC960FB6F894DEBF0FBE06
:1018D000CDBFDF91CF911F910F91FF90EF90DF90DF
:1018E000CF90BF90AF909F908F907F906F90089512
:1018F0002F923F924F925F926F927F928F929F9220
:10190000AF92BF92CF92DF92EF92FF920F931F930D
:10191000CF93DF93CDB7DEB7E3970FB6F894DEBF72
:101920000FBECDBF7C012A013B0169010E943A2410
:101930004B015C018701095B1F4FC8010E943A15EA
:101940001816190694F00E943A24681979098A0930
:101950009B094616570668067906F0F062E370E0C8
:1019600080E090E00E946924E8CF42E250E0BE01AE
:101970006F5F7F4FC8010E94D7148981823031F494
:10198000F801858996898334910541F019A6C8012B
:101990000E94671489A566C18FEF64C16D817E8145
:1019A0008F8198850E940C2D4B015C01F6016083AC
:1019B00071838283938346E050E0B701685F7F4F75
:1019C000CE014D960E949E2D892B99F4F7018081BE
:1019D0009181A281B38188169906AA06BB0648F0B8
:1019E00084819581A681B78188159905AA05BB05D3
:1019F00028F4C8010E94671480E034C189899A895B
:101A0000AB89BC89F70186879787A08BB18B3EECA9
:101A1000C32ED12CC8010E94AE14F1E0CF1AD10818
:101A2000C9F719A6C70182969BA78AA7F701B696A0
:101A3000FDA7ECA708969FA78EA73C976F018E96EF
:101A400099AB88AB3897FBABEAAB5701F6E1AF0E29
:101A5000B11C47018EE1880E911CC8010E944D14F3
:101A6000181619060CF093CFC8010E94AE148333E8
:101A7000910509F4CDC0F4F481309105B9F11CF45D
:101A8000892B59F3DFC083309105C1F1069709F026
:101A9000D9C0C8010E94AE143C0144E050E0B4013A
:101AA000C8010E94D714212C312C7724F4E06F1A3E
:101AB00071083FC08A33910509F47EC03CF4853338
:101AC000910561F0C69709F43FC0BCC08B33910506
:101AD00009F488C08F3F910501F2B4C0C8010E948B
:101AE000AE14C8010E94AE1489A7B7CFC8010E94E6
:101AF000AE1444E050E06AA97BA93AC0C8010E9434
:101B0000AE143C0144E050E0B501C8010E94D71476
:101B1000212C312C772494E0691A7108261437049B
:101B20000CF09BCFC8010E94AE14EFEF2E1A3E0AB4
:101B3000F5CF261437040CF090CFC8010E94AE14E4
:101B40008FEF281A380AF5CFC8010E94AE14782EFC
:101B5000F701828D811110C0838D81110DC0848D9C
:101B600081110AC0858D811107C044E050E0B601A3
:101B7000C8010E94D71471CFE8A9F9A9208031804B
:101B800042805380B601CE0183960E94D1278DA159
:101B90009EA1AFA1B8A582159305A405B50529F3AB
:101BA000212C312C721409F458CFC8010E94AE14B4
:101BB000FFEF2F1A3F0AF6CFC8010E94AE1444E08F
:101BC00050E06CA57DA5C8010E94D714F70166A15D
:101BD00077A180A591A50E940C2D66A377A380A76D
:101BE00091A73BCFC8010E94AE1444E050E06EA51F
:101BF0007FA5C8010E94D714F70162A573A584A52B
:101C000095A50E940C2D62A773A784A795A725CF41
:101C1000C8010E94AE1444E050E06AA57BA5C8014B
:101C20000E94D714F70162A173A184A195A10E941B
:101C30000C2D62A373A384A395A366A777A780AB9B
:101C400091AB0BCFC8010E94AE14382E612C712CC1
:101C5000361409F402CFC8010E94AE14FFEF6F1AC8
:101C60007F0AF6CFE3960FB6F894DEBF0FBECDBF66
:101C7000DF91CF911F910F91FF90EF90DF90CF9068
:101C8000BF90AF909F908F907F906F905F904F909C
:101C90003F902F9008952F923F924F925F926F92B4
:101CA0007F928F929F92AF92BF92CF92DF92EF92EC
:101CB000FF920F931F93CF93DF93CDB7DEB7279794
:101CC0000FB6F894DEBF0FBECDBF8C0120ED37E01C
:101CD00040E050E061E070E080E090E00E943C294C
:101CE000D80114966D937D938D939C931797F8016B
:101CF00060837183828393834801F7E48F0E911C84
:101D0000C4010E94791464E470E0C4010E940D15BE
:101D1000882309F428C10E943A246B017C01A12C7C
:101D2000B12C1D82180186E4280E311CD801DE96E4
:101D3000BF83AE8338EE432E33E0532E612C712CDB
:101D4000F1018081833009F4FDC081111FC0F801C9
:101D500084819581A681B7810196A11DB11D8483DF
:101D60009583A683B7830E943A246C197D098E0956
:101D70009F09A30192010E94C52CA90161E0C8013D
:101D80000E945F0B81E0D1018C93BEC08430F9F4D6
:101D9000F80184819581A681B7810196A11DB11DAD
:101DA00084839583A683B7830E943A246C197D09A6
:101DB0008E099F09A30192010E94C52CA90163E02D
:101DC000C8010E945F0BE2E0D101EC939DC081301D
:101DD00061F5AE81BF814D915D916D917C919E01C8
:101DE0002F5F3F4FC8010E94780C8D83823009F02D
:101DF0008BC089819A81AB81BC81F80184839583F2
:101E0000A683B7830E943A246C197D098E099F0925
:101E1000A30192010E94C52CA90163E0C8010E94A0
:101E20005F0BED81D101EC9375C0823009F06CC07D
:101E3000AE81BF814D915D916D917C919E012F5F2F
:101E40003F4FC8010E94780C8D83853009F056C041
:101E500083E0F1018083F80182A193A1A4A1B5A13F
:101E6000892B8A2B8B2B41F484E893E0A0E0B0E02F
:101E700082A393A3A4A3B5A3F80186A197A1A0A5CB
:101E8000B1A5892B8A2B8B2B61F482A193A1A4A1EC
:101E9000B5A1B695A7959795879586A397A3A0A773
:101EA000B1A7D8019A964D915D916D917C919D97C6
:101EB00096968D919D910D90BC91A02D452B462B12
:101EC000472B59F4AC01BD01440F551F661F771F06
:101ED000F80142A753A764A775A7F80186A797A79B
:101EE000A0ABB1AB82A593A5A4A5B5A582AB93ABDE
:101EF000A4ABB5ABAA24A394B12C0CC0FD81F630E1
:101F000019F4D1011C9206C0BD81BF3F19F4F10143
:101F100010821D82F1E0AF16B10409F411CF0E94C6
:101F20003A246C197D098E099F09D801DA962D9102
:101F30003D914D915C91DD9726173707480759076A
:101F400008F0FECEC4010E947914F80184819581C5
:101F5000A681B7810196A11DB11D84839583A683B7
:101F6000B783C50102C080E090E027960FB6F894D1
:101F7000DEBF0FBECDBFDF91CF911F910F91FF90BC
:101F8000EF90DF90CF90BF90AF909F908F907F9019
:101F90006F905F904F903F902F900895CF92DF9277
:101FA000EF92FF920F931F93CF93DF93EC016B019E
:101FB0001AA21BA21CA21DA21EA21FA218A619A62D
:101FC0001AA61BA61CA61DA61EAA1FAA18AE19AEED
:101FD0002AAF3BAF4CAF5DAFFC01FE96E082F182D1
:101FE000028313838C01085F1F4F86E0F801119272
:101FF0008A95E9F7CE010E940B0B86E0F601D80125
:1020000001900D928A95E1F7FE01EA5BFF4F108285
:10201000CE01DF91CF911F910F91FF90EF90DF9054
:10202000CF900C944B0EFB014281538164817581EA
:10203000FC0142835383648375831782168208955B
:10204000CF93FB0181918111FDCFFB0180E090E0F6
:1020500020E030E0CAE06191662309F124303105C7
:1020600064F56E3271F48F3F910509F034F5DA01B1
:10207000A20FB31F12968C932F5F3F4F80E090E02A
:10208000EACFDC01CA9FC001CB9F900D11247727B6
:1020900067FD709560537109860F971FDCCF8F3FE6
:1020A000910509F054F4243031053CF4FA01E20FB3
:1020B000F31F828381E090E002C080E090E0CF9146
:1020C00008950F9300E020E040E060E08BE195E0B0
:1020D0000E94C5270F910895AF92BF92CF92DF92D1
:1020E000EF92FF920F931F93CF93DF9300D01F9235
:1020F000CDB7DEB76C017B010E943A24F6017783ED
:1021000066838601085F1F4FB6016A5F7F4F42E01A
:1021100050E0C8010E949A1481E090E09A8389837C
:1021200042E050E0BE016F5F7F4FC8010E949A14E9
:1021300080E091E09A83898342E050E0BE016F5FC6
:102140007F4FC8010E949A141A82198242E050E01F
:10215000BE016F5F7F4FC8010E949A1442E050E0B9
:10216000BE016F5F7F4FC8010E949A1442E050E0A9
:10217000BE016F5F7F4FC8010E949A146701F6018C
:102180008081882311F1F7016F018191811115C0C0
:102190005601AE18BF081A141B0494F4AB8241E038
:1021A00050E0BE016D5F7F4FC8010E949A14A501E7
:1021B000B701C8010E949A1403C08E3229F7E8CFF4
:1021C0007601FFEFEF1AFF0ADACF1B8241E050E001
:1021D000BE016D5F7F4FC8010E949A14E12CFF245D
:1021E000F394FA82E98242E050E0BE016F5F7F4FD4
:1021F000C8010E949A14FA82E98242E050E0BE01CE
:102200006F5F7F4FC8010E949A1481E090E00F90A9
:102210000F900F90DF91CF911F910F91FF90EF9052
:10222000DF90CF90BF90AF9008954F925F926F92E2
:102230007F928F929F92AF92BF92CF92DF92EF9256
:10224000FF920F931F93CF93DF93CDB7DEB76397C2
:102250000FB6F894DEBF0FBECDBF7C015B016A01F3
:102260000E943A242B013C018701085F1F4F450162
:10227000A12CB12CC8010E943A151816190694F029
:102280000E943A24641975098609970986169706EB
:10229000A806B906D0F062E370E080E090E00E940A
:1022A0006924E8CFF7014281538164817581818D72
:1022B000928DA38DB48D481759076A077B0741F4A7
:1022C000858D968DC59721F406C08FEF9FEFF9C0DD
:1022D0008EEF9FEFF6C0C8010E944D140C970CF4CE
:1022E000EEC04CE050E0BE016F5F7F4FC8010E941E
:1022F000D7148B819C819827892798279A8B898B63
:10230000F7014681578129813A814217530711F419
:1023100097FD06C0C8010E9467148CEF9FEFD1C0E3
:102320008F709270892B31F0C8010E9467148BEF77
:102330009FEFC7C0AF80B884BA24AB24BA24A114DD
:10234000B10419F0E12CF12C23C0C8010E946714DC
:102350008AEF9FEFB6C041E050E0BE01635F7F4F60
:10236000C8010E94D7148D8581111BC08D858111F4
:10237000F2CFC8010E94AE14C8010E94AE14C80179
:102380000E94AE14C8010E94AE14FFEFEF1AFF0ABC
:102390008D819E81982789279827E816F906D8F21B
:1023A0000AC08D859FEF980F9D878823F9F2C80199
:1023B0000E94AE14F6CFE12CF12C41E050E0BE01BA
:1023C0006D5E7F4FC8010E94D7148B89982F907C37
:1023D00061F4882371F08B899FEF980F9B8B882382
:1023E00041F0C8010E94AE14F6CFC8010E94AE149D
:1023F0001B8A8B898111E1CF42E050E0BE01615F11
:102400007F4FC8010E94D71442E050E0BE01635FD5
:102410007F4FC8010E94D714C8010E94AE14C801A2
:102420000E94AE14C8010E94AE14C8010E94AE14EE
:1024300042E050E0BE016F5E7F4FC8010E94D7149A
:102440008F8598898115914029F48D859E85811508
:10245000914019F0812C912C16C089899A89811597
:10246000944031F0C8010E94671487EF9FEF29C0A4
:10247000B6016E5F7F4F44E050E0C8010E94D71460
:1024800081E090E01EC089899A899827892798273A
:102490008816990638F4C8010E94AE142FEF821AEC
:1024A000920AF1CF8FEFE81AF80AEA14FB0409F058
:1024B00084CFC8010E94671486EF9FEF02C08DEFA2
:1024C0009FEF63960FB6F894DEBF0FBECDBFDF91CE
:1024D000CF911F910F91FF90EF90DF90CF90BF9021
:1024E000AF909F908F907F906F905F904F900895E6
:1024F0008F929F92AF92BF92CF92DF92EF92FF9214
:102500000F931F93CF93DF9300D000D000D0CDB7AF
:10251000DEB78C015B016A010E9420104C0100971C
:1025200009F05DC0F8014281538164817581809119
:102530001D0590911E05A0911F05B091200548171B
:1025400059076A077B0709F44EC00E943A247801B4
:10255000F8E0EF0EF11C6F7077277C5FC7010E94D7
:102560000D15813009F043C08BE092E09A83898396
:10257000F80182819381A481B5818B839C83AD8393
:10258000BE8345E350E0BE016F5F7F4FC7010E94ED
:102590008E14892B19F4812C912C1DC0B501C80112
:1025A0000E946C10892BB9F3C7010E949614892BE5
:1025B00091F333E0A32EB12CA60168E873E1C801C2
:1025C0000E9415114C01F1E0AF1AB10821F08F3FC4
:1025D0002FEF920789F3C7010E94791408C088245D
:1025E0008394912C04C09EEF892E99249A94C4015F
:1025F00026960FB6F894DEBF0FBECDBFDF91CF9108
:102600001F910F91FF90EF90DF90CF90BF90AF9010
:102610009F908F90089520911305222399F03FB742
:10262000F89420911305213059F42DB3209311050E
:102630004DB320911205209524232DBB3FBF02C02E
:10264000309311058CBD9DBD08958091130588239D
:1026500061F09FB7F8942091130580911105213006
:1026600019F48DBB9FBF08958FBF089544E050E0DB
:10267000BC0181E090E00C94581944E050E0BC01AA
:1026800085E090E00C94581944E050E0BC018FE0E4
:1026900090E00C945819AF92BF92CF92DF92EF92D4
:1026A000FF920F931F93CF93DF9300D000D000D001
:1026B000CDB7DEB76C015B0180918B05811107C03E
:1026C00088E695E00E948A1581E080938B0581E27F
:1026D00095E0F6019783868385EB95E00E94F018DC
:1026E00080E590E00E940B1346E050E0B50189E0E0
:1026F00090E00E94581900E020E040E060E0CE0148
:1027000001960E94C527CE0103960E9444130E94A1
:10271000251310EAE12E1FE0F12E00E010E020E684
:102720003AEE40E050E0B501F601868197810E94C3
:10273000CE0F5C0181309105B9F580E590E00E94F3
:102740000B13F60166817781CE0101960E94120B70
:10275000CE0103960E944413F60166817781CE0173
:1027600001960E94280BCE0103960E943613F601B3
:1027700066817781CE0101960E941D0BCE010396E2
:102780000E943D130E942513F60166817781CE01D8
:1027900001960E94330B4B815C816D817E81F60135
:1027A0004283538364837583C50126960FB6F894DC
:1027B000DEBF0FBECDBFDF91CF911F910F91FF9074
:1027C000EF90DF90CF90BF90AF900895CF93DF93BD
:1027D000EC010E94BB2780E590E00E940B13BE0134
:1027E0006E5F7F4F44E050E08FE090E00E947E1AE1
:1027F0000E942513CE01DF91CF9108952BE032E0A6
:10280000FC0131832083FB01428153816481758106
:10281000FC01428353836483758308950F9300E022
:1028200020E040E060E08BE995E00E94C52783E866
:1028300095E00F910C94BB270F9300E020E040E05F
:1028400060E081EA95E00E94C5270F9108950F93FB
:1028500000E020E040E060E087EA95E00E94C527C4
:102860000F910895DC01ED91FC91008CF18DE02D2C
:1028700009942BE032E0FC0131832083FB01418984
:10288000528963897489FC0142835383648375830D
:102890000895FC01858996890895FC01818D928DAA
:1028A0000895CF93DF931F92CDB7DEB76983DC0124
:1028B000ED91FC910280F381E02D41E050E0BE01FA
:1028C0006F5F7F4F09950F90DF91CF910895CF9360
:1028D000DF93EC01898D9A8D892B41F0E881F98194
:1028E0000680F781E02DCE010995F4CFDF91CF91DD
:1028F0000895CF93DF93EC018C85843061F00E94C2
:10290000AC16EC85F0E0EE0FFF1FED56FA4F11828A
:10291000108284E08C87DF91CF910895FC01108EA6
:10292000178A6E5F7F4F84850C942B18FC01848579
:102930000C947118CF93DF93EC019A018F89988DD5
:10294000AB01BC018C850E94E4172F89388D280FBC
:10295000391F388F2F8BDF91CF9108950F931F93DD
:10296000CF93DF931F92CDB7DEB78C01FC01818D31
:10297000928D892B59F041E050E0BE016F5F7F4F8F
:1029800084850E942A17181619061CF08FEF9FEFF6
:1029900008C0F801818D928D0197928F818F898176
:1029A00090E00F90DF91CF911F910F910895CF93F9
:1029B000DF93EC01898D9A8D009719F48FEF9FEFCB
:1029C00010C04817590708F0AC018C850E942A17DF
:1029D000181619069CF7298D3A8D281B390B3A8F4A
:1029E000298FDF91CF910895CF93DF931F92CDB7B9
:1029F000DEB7FC01218D328D232B49F0BE016F5FC4
:102A00007F4F84850E94B517898190E002C08FEFC7
:102A10009FEF0F90DF91CF910895FF920F931F9337
:102A2000CF93DF93EC018B018C858430E1F4F12CA2
:102A30008F2D0E948416811102C0FC8606C0883149
:102A4000E1F3F39484E0F812F3CF8C85843059F0ED
:102A50001E870D871A8E198E20E0A80162E00E9461
:102A6000D61681E001C080E0DF91CF911F910F91D8
:102A7000FF9008950F931F93CF93DF93CDB7DEB7E9
:102A800028970FB6F894DEBF0FBECDBF8C01DC01D6
:102A9000ED91FC910284F385E02D0995F801848580
:102AA0000E948A171816190644F548E050E0BE0146
:102AB0006F5F7F4FD8011C968C910E942A171816C1
:102AC0001906ECF4BE016F5F7F4FC8010F960E949C
:102AD000E1278D8190E0982F88272E81820F911D0C
:102AE000F801968B858B8F8190E0982F8827288519
:102AF000820F911D928F818F02C080E090E0289616
:102B00000FB6F894DEBF0FBECDBFDF91CF911F91FE
:102B10000F910895FC011382128248EE53E060E0A9
:102B200070E044835583668377838DE991E09183D8
:102B3000808384E08487CF010F960C94BB27CF92CB
:102B4000DF92EF92FF920F931F93CF93DF93CDB756
:102B5000DEB7AF970FB6F894DEBF0FBECDBF7C01D6
:102B60008B016A01CE0101960E94BB27CE01099616
:102B70000E948A15CE018A960E94BB2763E875E001
:102B8000CE0184960E94FE13BE016C5D7F4FCE0184
:102B900001960E941310AE01465D5F4FB801CE0151
:102BA00001960E94781281309105C1F4D701ED9110
:102BB000FC910088F189E02D8BE092E09DA38CA32D
:102BC0000CA51DA52EA53FA50EA31FA328A739A7B9
:102BD000A601BE016C5D7F4FC7010995AF960FB688
:102BE000F894DEBF0FBECDBFDF91CF911F910F9143
:102BF000FF90EF90DF90CF9008950F9300E020E0DA
:102C000040E060E08DEA95E00E94C5270F910895AD
:102C1000CF92DF92EF92FF920F9330E0C12CF2E15E
:102C2000DF2EFAE7EF2EF12C4C155D056E057F05C2
:102C300040F4F694E794D794C7943F5F3630A1F7F9
:102C400037E041E04327211102C050E701C050E5C1
:102C5000242F30E03595279523700C70202B252BE1
:102C6000FC012083417041830F91FF90EF90DF9032
:102C7000CF90089590E0982F882744E050E0845F3B
:102C80009B4F0C945819282F30E02C5F3F4F922F08
:102C90008827860F971F0C94871962E070E00C94C8
:102CA0004316FB01282F30E02C5F3F4F922F8827DF
:102CB000642F8E0F9F1F0C94CE18CF93DF93C82FD5
:102CC000D62F472F64E070E00E9451164D2F65E02B
:102CD00070E08C2FDF91CF910C945116462F62E05B
:102CE00070E00C945116CF93DF93C82FD62F472F47
:102CF00060E170E00E9451164D2F61E170E08C2F71
:102D0000DF91CF910C9451160F931F93CF93DF93C4
:102D100000D01F92CDB7DEB7182F00E021E040E0D1
:102D200059E06DE370E0CE0101960E94081689819A
:102D30009A810E940B1363E070E0812F0E9443167A
:102D40008B830E9425138B810F900F900F90DF9142
:102D5000CF911F910F9108950F931F93CF93DF93FE
:102D600000D0CDB7DEB7182F00E021E040E059E0F9
:102D70006DE370E0CE0101960E94081689819A8168
:102D80000E940B1340E150E0612F85EB95E00E941B
:102D9000461B6FEF812F0E946E160E9425130F9025
:102DA0000F90DF91CF911F910F910895CF92DF92F5
:102DB000EF92FF920F931F93CF93DF9300D0CDB785
:102DC000DEB7182FD62E7A01C22E8FEF860F8530F0
:102DD000A8F5812F0E94AC1600E021E040E059E008
:102DE0006DE370E0CE0101960E94081689819A81F8
:102DF0000E940B134D2D4C2960E070E0812F0E9442
:102E00005116E114F10411F0B7010AC06091B30545
:102E10007091B4056F5F7F4F7093B4056093B305F5
:102E2000812F0E945D1641E050E0612F85EB95E017
:102E30000E94461B0E94251381E001C080E00F9094
:102E40000F90DF91CF911F910F91FF90EF90DF9046
:102E5000CF900895AF92BF92CF92DF92EF92FF9200
:102E60000F931F93CF93DF9300D0CDB7DEB7182F0A
:102E70005B016A0100E021E040E059E06DE370E0B1
:102E8000CE0101960E94081689819A810E940B1337
:102E9000612F85EB95E00E94F3197C010097A1F466
:102EA00063E070E0812F0E944316843119F188237A
:102EB00009F121E030E08C3111F420E030E0EE2423
:102EC000FF24E21AF30A16C0C816D9060CF47601DC
:102ED0001E141F047CF400E09701A501612F85EB0F
:102EE00095E00E94F61A40E450E0612F85EB95E0F2
:102EF0000E94461B0E942513C7010F900F90DF917F
:102F0000CF911F910F91FF90EF90DF90CF90BF90E6
:102F1000AF9008950F931F93CF93DF9300D000D00D
:102F2000CDB7DEB7182F00E021E040E059E06DE3B7
:102F300070E0CE0101960E94081689819A810E9454
:102F40000B13612F85EB95E00E94F3198B839C8313
:102F50000E9425138B819C810F900F900F900F90F2
:102F6000DF91CF911F910F910895EF92FF920F93F0
:102F70001F93CF93DF9300D0CDB7DEB7182F7B011F
:102F800000E021E040E059E06DE370E0CE01019601
:102F90000E94081689819A810E940B1301E021E0AA
:102FA00030E0A701612F85EB95E00E94F61A0E94A0
:102FB000251381E090E00F900F90DF91CF911F914A
:102FC0000F91FF90EF9008959F92AF92BF92CF9292
:102FD000DF92EF92FF920F931F93CF93DF9300D076
:102FE000CDB7DEB7982E6B015A01790100E021E0E0
:102FF00040E059E06DE370E0CE0101960E940816B2
:1030000089819A810E940B13692D85EB95E00E94BE
:10301000BF198E159F0530F4692D85EB95E00E9450
:10302000BF197C0187019501A601692D85EB95E00B
:103030000E940F1A0E942513C7010F900F90DF9175
:10304000CF911F910F91FF90EF90DF90CF90BF90A5
:10305000AF909F900895CF92DF92EF92FF920F93DF
:103060001F93CF93DF9300D0CDB7DEB7182F7B012E
:103070006A01FB018081811109C08181811106C033
:103080008281811103C083818823F1F0C114D104AE
:10309000D9F000E021E040E059E06DE370E0CE01BE
:1030A00001960E94081689819A810E940B13B7012C
:1030B000812F0E943A16B601812F0E9473160E943A
:1030C000251381E090E002C080E090E00F900F9027
:1030D000DF91CF911F910F91FF90EF90DF90CF90F4
:1030E00008950F931F93CF93DF9300D0CDB7DEB732
:1030F000182F00E021E040E059E06DE370E0CE01E0
:1031000001960E94081689819A810E940B1340E261
:1031100050E0612F85EB95E00E94461B812F0E94B5
:103120004D1684FD21C0812F0E944D1683FF09C0DA
:1031300068E1812F0E946E160E94251380E090E0C6
:103140001BC00E9425130E94EF2300E021E040E015
:1031500059E06DE370E0CE0101960E940816898166
:103160009A810E940B13DACF60E1812F0E946E16C4
:103170000E94251381E090E00F900F90DF91CF9196
:103180001F910F9108958EBD00000DB407FEFDCF75
:103190008EB508952A9808952A9A08951F93CF937B
:1031A000DF9300D0CDB7DEB7182F6A8399830E94D2
:1031B000CA1880EF0E94C3189981892F0E94C318F2
:1031C000812F0E94C3186A81862F0E94C3180E9413
:1031D000CC1881E00F900F90DF91CF911F9108954F
:1031E000CF93DF93EC016CE271E080E090E00E940D
:1031F00069240E94E60A229A80911305882399F097
:103200009FB7F89480911305813059F48DB3809362
:1032100011052DB380911205809582238DBB9FBF30
:1032200002C09093110580E58CBD1DBC60E880E074
:1032300090E00E94CE1865E58BE190E00E94CE18E8
:1032400065E58AE190E00E94CE18809113058823FD
:1032500061F09FB7F89420911305809111052130FA
:1032600019F48DBB9FBF01C08FBF80E090E49983AC
:10327000888380E090E69987888780E098E49B8344
:103280008A8380E098E69B878A8780E090E59D832B
:103290008C8380E090E79D878C8780E098E59F8312
:1032A0008E8380E098E79F878E87DF91CF91089586
:1032B000CF92DF92EF92FF920F931F93CF93DF9302
:1032C000EC017A018B016C01C40ED51ECC15DD0515
:1032D000A1F00E94CA1880EF0E94C3188D2F0E948F
:1032E000C3188C2F0E94C3182196F80181918F0179
:1032F0000E94C3180E94CC18E9CFC701DF91CF917B
:103300001F910F91FF90EF90DF90CF9008951F9342
:10331000CF93DF931F92CDB7DEB7182F99830E940A
:10332000CA188FE00E94C3189981892F0E94C31880
:10333000812F0E94C31880E00E94C31889830E94D5
:10334000CC1889810F90DF91CF911F9108951F9321
:10335000CF93DF93182F60E270E00E944316C82FCE
:10336000D0E061E270E0812F0E944316DC2FCC2771
:103370009E01282BC901DF91CF911F910895FF92E3
:103380000F931F93CF93DF93F62EC0E0D0E08F2DE5
:103390000E94A7198C01009721F08F2D0E94A71978
:1033A000EC01C017D10799F7CE01DF91CF911F91A2
:1033B0000F91FF9008951F93CF93DF93182F66E22C
:1033C00070E00E944316C82FD0E067E270E0812FC2
:1033D0000E944316DC2FCC279E01282BC901DF91C8
:1033E000CF911F910895FF920F931F93CF93DF9377
:1033F000F62EC0E0D0E08F2D0E94DB198C010097E3
:1034000021F08F2D0E94DB19EC01C017D10799F72D
:10341000CE01DF91CF911F910F91FF9008956F9290
:103420007F929F92AF92BF92CF92DF92EF92FF92E4
:103430000F931F93CF93DF931F92CDB7DEB7D82E94
:10344000962E3A01590164E270E0892D99830E9419
:103450004316E82EF12C65E270E0892D0E94431698
:10346000FE2CEE24E82AE60CF71C970137706D2C31
:103470009981792E690C711C690C711CD301ED9135
:10348000FC91E20FF31FC901800F911F813098401A
:10349000A0F0C12C48E0D42EC21AD30AA601B5016F
:1034A000CF010E945819A8014C195D09B5016C0D96
:1034B0007D1DF3018081918103C0A801B501CF0179
:1034C0000E945819E00EF11E4F2D64E270E0892D24
:1034D0000E9451164E2D65E270E0892D0F90DF910C
:1034E000CF911F910F91FF90EF90DF90CF90BF9001
:1034F000AF909F907F906F900C945116CF92DF9277
:10350000EF92FF920F931F93CF93DF93EC017A0119
:103510008B016C01C40ED51ECC15DD05A9F00E94EF
:10352000CA188FE00E94C3188D2F0E94C3188C2FD9
:103530000E94C318219680E00E94C318F80181936D
:103540008F010E94CC18E8CFC701DF91CF911F9166
:103550000F91FF90EF90DF90CF900895AF92BF92C0
:10356000CF92DF92EF92FF920F931F93CF93DF934F
:1035700000D0CDB7DEB75A8349835901E981FA817A
:10358000F7707C01E60EF11CE60EF11CD7011896CF
:103590008D919C9119978E0F9F1F98012E0F3F1FA1
:1035A0002130384098F0C12C68E0D62ECE1ADF0AC0
:1035B000A601B5010E947E1AA8014C195D09B5014A
:1035C0006C0D7D1DF7018085918502C0A801B501B4
:1035D0000F900F90DF91CF911F910F91FF90EF907F
:1035E000DF90CF90BF90AF900C947E1A8F929F92F5
:1035F000AF92BF92CF92DF92EF92FF920F931F9301
:10360000CF93DF936C01962E5A017901802E68E2E8
:1036100070E0892D0E944316C82FD0E069E270E067
:10362000892D0E944316DC2FCC27C82B87019501DA
:10363000AE01692DC6010E94AE1A81101AC0CE0DCE
:10364000DF1D4D2F68E270E0892D0E9451164C2F2E
:1036500069E270E0892DDF91CF911F910F91FF906A
:10366000EF90DF90CF90BF90AF909F908F900C9491
:103670005116DF91CF911F910F91FF90EF90DF9046
:10368000CF90BF90AF909F908F900895CF93C62F0B
:1036900061E070E08C2F0E94511661E070E08C2F89
:1036A0000E9443168111F9CFCF910895E6ECF5E021
:1036B00080E021913191232B21F08F5F8430C9F775
:1036C0008FEF0895CB01BA010C94BF230F9300E054
:1036D00020E040E060E08EEC95E00E94C5270F916D
:1036E0000C942A23CF93DF931F92CDB7DEB7698363
:1036F000DC01ED91FC910280F381E02D41E050E08E
:10370000BE016F5F7F4F09950F90DF91CF910895B4
:10371000CF93DF93EC01E881F9810480F581E02DFE
:10372000CE010995892B41F0E881F9810680F78166
:10373000E02DCE010995EFCFDF91CF91089521E0E3
:10374000FC0184858F3F09F420E0822F0895CF92F9
:10375000DF92EF92FF920F931F93CF93DF93CDB73A
:10376000DEB72E970FB6F894DEBF0FBECDBF7C013B
:103770006A01CE0107966D877E870E94BB27AE0146
:10378000495F5F4F6D857E8585EC95E00E94621BE9
:103790000097C1F0D701ED91FC910484F585E02DEF
:1037A0008BE092E09A83898309851A852B853C8575
:1037B0000B831C832D833E83A601BE016F5F7F4F69
:1037C000C70109952E960FB6F894DEBF0FBECDBF88
:1037D000DF91CF911F910F91FF90EF90DF90CF90ED
:1037E0000895FC0184858F3F11F00C94BB1F80E08D
:1037F00090E008950F931F93CF93DF931F92CDB75F
:10380000DEB78C01DC01ED91FC910480F581E02DA7
:103810000995892B59F040E0BE016F5F7F4FF80199
:1038200084850E94EA1F898190E002C08FEF9FEF9C
:103830000F90DF91CF911F910F9108950F931F93D8
:10384000CF93DF931F92CDB7DEB78C01DC01ED91F2
:10385000FC910480F581E02D0995892B59F041E018
:10386000BE016F5F7F4FF80184850E94EA1F898146
:1038700090E002C08FEF9FEF0F90DF91CF911F91EB
:103880000F910895CF93DF9300D0CDB7DEB75A8361
:103890004983AE014F5F5F4FFC0184850E942A205F
:1038A00091E09827892F90E09195819591090F904B
:1038B0000F90DF91CF9108950F931F93CF93DF93D4
:1038C000EC018A018C85843060F44115510549F082
:1038D0000E945D20882329F08C850E949F20811101
:1038E00007C081E090E09B838A8380E090E001C084
:1038F000C801DF91CF911F910F910895FC01262FF0
:103900001382128248EE53E060E070E044835583F6
:103910006683778385ED91E0918380832487089582
:10392000FC0184858F3F11F00C948F1F80E0089577
:103930000F931F93CF93DF93EC018C858F3F01F1A1
:103940000E94381FEC85F0E0EE0FFF1FEC5FFE4F8A
:103950008FEF9FEF9183808302E310E0CE010E94FE
:10396000901C882319F00150110919F48FEF8C87EE
:1039700007C064E670E080E090E00E946924EECF2A
:10398000DF91CF911F910F910895FC0124852F3F66
:1039900071F00E94901C843050F09BEF980F933090
:1039A00030F091E08A3009F490E0892F089580E0AA
:1039B0000895E4E0F1E080E090E0219131912F3F23
:1039C0003F4F29F0019684309105B9F78FEF0895A4
:1039D000AF92BF92CF92DF92EF92FF920F93CF936D
:1039E000DF9300D0CDB7DEB75C017B0149835A83FA
:1039F0000E94D91C282FD5011C968C9349815A818D
:103A00008F3F69F1F701628173818481958100E0C4
:103A10000E94EA1ED5011C968C9190E0FC01EE0FED
:103A2000FF1FEC5FFE4F918380830E943A246B015D
:103A30007C01D501ED91FC910488F589E02DC5014B
:103A40000995811115C00E943A246C197D098E09CF
:103A50009F096031774281059105C8F009C06DEB7F
:103A600071E087EF95E00E94702880E090E016C03A
:103A7000D501ED91FC910488F589E02DC5010995EA
:103A800021E090E0811101C020E0822F07C061E0B9
:103A900070E080E090E00E946924CBCF0F900F90FF
:103AA000DF91CF910F91FF90EF90DF90CF90BF907B
:103AB000AF9008950F9300E020E040E060E084EDD7
:103AC00095E00E94C5270F910895CF93DF931F9231
:103AD000CDB7DEB76983DC01ED91FC910280F38103
:103AE000E02D41E050E0BE016F5F7F4F09950F90E0
:103AF000DF91CF9108951F93CF93DF93EC010E9444
:103B0000561B182F8F3FB9F040E0682F8C819D81A4
:103B10000E94AE1E812F90E04C815D819C01220F9E
:103B2000331FF901EA53FA4F51834083F901EC5FE7
:103B3000FE4F91838083DF91CF911F9108957F92F3
:103B40008F929F92AF92BF92CF92DF92EF92FF92AD
:103B50000F931F93CF93DF93CDB7DEB72F970FB699
:103B6000F894DEBF0FBECDBF4C016B015A0106ECCD
:103B700015E0712CE12CF12CF80180819181892BC9
:103B8000A1F0672DCE0101960E947E1CF8012081D4
:103B90003181F401848195812817390731F4CE01F0
:103BA00001960E94901C8430D9F00E5F1F4F7394D1
:103BB000F4E07F12E1CFC7012F960FB6F894DEBF75
:103BC0000FBECDBFDF91CF911F910F91FF90EF906E
:103BD000DF90CF90BF90AF909F908F907F9008958F
:103BE000A501B601CE0101960E945C1CE80EF91EEB
:103BF000DCCFFC011382128281EF91E091838083FC
:103C00007583648308958F929F92AF92BF92CF92F3
:103C1000DF92EF92FF920F931F93CF93DF93CDB775
:103C2000DEB72F970FB6F894DEBF0FBECDBF8C0165
:103C30007B015A0176ECC72E75E0D72E912CF60148
:103C4000219131916F01F7018481958128173907FE
:103C500009F045C0692DCE0101960E947E1CCE015F
:103C600001960E94901C882E80E00E94631FA11480
:103C7000B10411F0F501808281110EC02091DA05A6
:103C80003091DB05A9014F5F5F4F5093DB054093F7
:103C9000DA052333310564F5F4E08F1220C08B81FF
:103CA0009C81F801938382838D819E81AF81B88549
:103CB00084839583A683B78349855A856B857C85E4
:103CC000408751876287738785ED91E09183808378
:103CD0008D8584878E859F859687858715C093946B
:103CE000F4E09F12ACCF6FEFC8010E947E1C0CC0A5
:103CF00040E0692DF701848195810E94AE1E1092EB
:103D0000DB051092DA05C8CFC8012F960FB6F894DC
:103D1000DEBF0FBECDBFDF91CF911F910F91FF90FE
:103D2000EF90DF90CF90BF90AF909F908F900895CD
:103D30000F9300E020E040E060E08CED95E00E9411
:103D4000C5270F9108950F9300E020E040E060E068
:103D500082EE95E00E94C5270F9108950F931F935F
:103D6000CF93DF9300D000D0CDB7DEB78C016B834B
:103D70004C830E942C210E940D2163E088E20E9466
:103D80000E2360E0C8010E94EA2240E061E0CE011B
:103D900003960E947E2141E061E0CE0104960E94DC
:103DA0007E210E942C211A8219829E012F5F3F4F93
:103DB000AE014E5F5F4F61E088E20E94C1210E9428
:103DC00011210F900F900F900F90DF91CF911F91C5
:103DD0000F910895EF92FF920F93CF93DF93CDB79A
:103DE000DEB728970FB6F894DEBF0FBECDBF6B834A
:103DF0007C838D839E837A012F8308870E942C21E8
:103E00000E940D2164E08DE20E940E2340E064E0F8
:103E1000CE0103960E947E2160E0C7010E94EA2243
:103E200040E061E0CE0107960E947E2141E061E022
:103E3000CE0108960E947E210E942C211A821982AE
:103E40009E012F5F3F4FAE014E5F5F4F61E08DE2FD
:103E50000E94C1210E94112128960FB6F894DEBF5E
:103E60000FBECDBFDF91CF910F91FF90EF900895DE
:103E7000CF93DF9300D01F92CDB7DEB78B830E9424
:103E80002C210E940D2161E08EE20E940E2341E070
:103E900061E0CE0103960E947E210E942C211A82AD
:103EA00019829E012F5F3F4FAE014E5F5F4F61E071
:103EB0008EE20E94C1210E9411210F900F900F905D
:103EC000DF91CF910895CF93DF9300D01F92CDB7AC
:103ED000DEB78B830E942C210E940D2161E089E2D4
:103EE0000E940E2341E061E0CE0103960E947E21F4
:103EF0000E942C211A8219829E012F5F3F4FAE0132
:103F00004E5F5F4F61E089E20E94C1210E94112152
:103F10008A810F900F900F90DF91CF910895CF93EA
:103F2000DF9300D01F92CDB7DEB78B830E942C2188
:103F30000E940D2161E08FE20E940E2341E061E0CA
:103F4000CE0103960E947E210E942C211A821982A2
:103F50009E012F5F3F4FAE014E5F5F4F61E08FE2EA
:103F60000E94C1210E9411218A810F900F900F9011
:103F7000DF91CF910895CF93DF9300D000D0CDB7DC
:103F8000DEB78C830E942C210E940D2161E08BE220
:103F90000E940E2341E061E0CE0104960E947E2142
:103FA0000E942C211B821A8219829E012D5F3F4F95
:103FB000AE014F5F5F4F61E08BE20E94C1210E9422
:103FC000112189819A810F900F900F900F90DF91AE
:103FD000CF910895FF920F931F93CF93DF9300D05B
:103FE0001F92CDB7DEB78B838B01F42E0E942C215C
:103FF0000E940D2162E08CE20E940E2340E061E00D
:10400000CE0103960E947E2161E08F2D90E00E94F8
:10401000EA220E942C211A821982AE014F5F5F4F63
:10402000BE016E5F7F4F8CE20E940D220E94112123
:104030008981882329F08A81F801808381E001C089
:1040400080E00F900F900F90DF91CF911F910F9113
:10405000FF900895EF92FF920F931F93CF93DF93FA
:104060001F92CDB7DEB789837B018A010E942C2184
:104070000E940D2161E085E40E940E2341E061E091
:1040800070E0CE0101960E94BC220E942C21A80162
:10409000B70185E40E9472220E94112181E0F8019B
:1040A00020813181232B09F480E00F90DF91CF91A3
:1040B0001F910F91FF90EF900895EF92FF920F9351
:1040C0001F93CF93DF9300D01F92CDB7DEB78B83C2
:1040D0008B017A010E942C210E940D2162E084E470
:1040E0000E940E2340E061E070E0CE0103960E9442
:1040F000BC2241E0B701C8010E94BC220E942C21D1
:104100001A821982AE014F5F5F4FBE016E5F7F4F13
:1041100084E40E940D220E9411218981882321F0CC
:1041200081E09A81913009F080E00F900F900F901C
:10413000DF91CF911F910F91FF90EF9008950F9312
:104140001F93CF93DF9300D01F92CDB7DEB78B8341
:104150001A82198200E010E00E942C210E940D2199
:1041600061E08AE20E940E2341E061E0CE01039605
:104170000E947E210E942C219E012F5F3F4FAE01A5
:104180004E5F5F4F61E08AE20E94C1210E941121CF
:104190008A81811109C00F5F1F4F64E670E080E0E3
:1041A00090E00E94692402C000E010E08A81882328
:1041B00031F081E00931110531F480E004C00931AA
:1041C000110550F2F6CF0F900F900F90DF91CF9125
:1041D0001F910F9108950E94E60A61E08AE00E9413
:1041E000FF2460E087E00E94FF2461E089E00E94F4
:1041F000FF2460E08DE00E94382560E08BE00E94A3
:10420000382561E08AE00E94382561E08AE00E945A
:10421000382560E089E00C94382560E08AE00C9451
:10422000382561E08AE00C943825CF93DF931F9204
:10423000CDB7DEB7898389818EBD00000DB407FE3E
:10424000FDCF8EB52AE030E0000021503109E1F7C2
:104250000F90DF91CF91089587E00E946E25892B02
:10426000D9F70895CF93DF93EC018FEF0E941521CA
:1042700088838AE090E000000197E9F7DF91CF9111
:1042800008951F93CF93DF93182FEB01CB010E946A
:10429000322181E090E02881211711F080E090E048
:1042A000DF91CF911F910895CF93DF931F92CDB7E8
:1042B000DEB71982CE0101960E94322189810F90CA
:1042C000DF91CF9108951F93CF93DF93182FC9EEFD
:1042D000D3E00E945421282F8F3E29F0219731F0FE
:1042E0008113F7CF03C08FEF9FEF04C081E090E010
:1042F000211380E0DF91CF911F910895DF92EF921B
:10430000FF920F931F93CF93DF938C01E62ED42E51
:10431000862F0E941521E801F12CCE01801B910B04
:104320008E159F0524F489910E941521F6CF81E016
:10433000D8120AC08EEEDF91CF911F910F91FF909E
:10434000EF90DF900C941521DF91CF911F910F9189
:10435000FF90EF90DF900895CF93C82F892F0E9490
:1043600015218C2FCF910C941521CF93DF93EC0165
:104370008FEF0E941521209709F08883DF91CF915C
:104380000895CF92DF92EF92FF920F931F93CF93F6
:10439000DF931F92CDB7DEB7082F162F6A01790180
:1043A000198280EE0E946321892B19F480E090E04D
:1043B0002AC0CE0101960E943221006889818013B3
:1043C000F5CFCE0101960E94322189818113EECF73
:1043D000C7010E94B52100E010E0F701808190E064
:1043E0000817190744F4C601800F911F0E9432215B
:1043F0000F5F1F4FF2CFBE016F5F7F4F8EEE0E94A7
:10440000412181E090E00F90DF91CF911F910F91BA
:10441000FF90EF90DF90CF900895CF92DF92EF92D0
:10442000FF920F931F93CF93DF931F92CDB7DEB709
:10443000182F6B017A01198280EE0E946321892B6B
:1044400019F480E090E029C0CE0101960E9432214B
:10445000106889818113F5CF0E945421811109C010
:10446000BE016F5F7F4F8EEE0E94412181E090E0A0
:1044700014C0C7010E94B5218601F701808190E038
:1044800098012C193D092817390754F78FEF0E941E
:104490001521F80181938F01F0CF0F90DF91CF911B
:1044A0001F910F91FF90EF90DF90CF9008951F9391
:1044B000CF93DF93EC018FEF0E941521182F8FEF20
:1044C0000E941521212F332727FD3095322F2227D7
:1044D000282B209711F039832883C901DF91CF91D0
:1044E0001F910895CF92DF92EF92FF920F931F9347
:1044F000CF93DF931F92CDB7DEB7182F6B017A01F0
:10450000198280EE0E946321892B19F480E090E0EB
:1045100029C0CE0101960E94322110688981811341
:10452000F5CF0E945421811109C0BE016F5F7F4FFA
:104530008EEE0E94412181E090E014C0C7010E94EC
:1045400057228601F7018081918198012C193D093C
:104550002817390750F78FEF0E941521F801819332
:104560008F01F0CF0F90DF91CF911F910F91FF90AE
:10457000EF90DF90CF900895DF92EF92FF920F932C
:104580001F93CF93DF93D82EE92E8B01F42ECB010E
:104590000E94AC21CD2DDE2D0C0F1D1FC017D107A1
:1045A00021F089910E941521F9CF81E0F8120AC00B
:1045B0008EEEDF91CF911F910F91FF90EF90DF90E2
:1045C0000C941521DF91CF911F910F91FF90EF90E7
:1045D000DF9008951F93CF93DF9300D0CDB7DEB760
:1045E000182F82E06A8399830E9415219981892F6F
:1045F0000E941521812F0E9415216A81613041F4AA
:104600008EEE0F900F90DF91CF911F910C9415219A
:104610000F900F90DF91CF911F910895CF93DF936B
:10462000D82FC62F80EE0E9415218AE090E00E94CC
:1046300091248D2F8F770E9415218C2F0E94152198
:10464000C11105C08EEEDF91CF910C941521DF9141
:10465000CF9108950C94EB200F931F93CF93DF938A
:1046600000D01F92CDB7DEB78C010E942C210E9492
:104670000D2161E084E30E940E23F80101900020E7
:10468000E9F7BF0161507109601B710B41E0C8017E
:104690000E947E210E942C211A8219829E012F5F86
:1046A0003F4FAE014E5F5F4F61E084E30E94C12146
:1046B0008B830E9411218B810F900F900F90DF91BF
:1046C000CF911F910F910895EF92FF920F931F9337
:1046D000CF93DF93CDB7DEB72D970FB6F894DEBF3B
:1046E0000FBECDBF7C010FEF2FEF4FEF6FEFCE016D
:1046F00001960E94C5270E942C210E940D2160E096
:1047000085E30E940E230E942C211B869E01255FBB
:104710003F4FAE01495F5F4F61E085E30E94C121D9
:10472000892BC1F0BE01695F7F4FC7010E94E1275D
:1047300081E090E0F70102811381248135814B8172
:104740005C816D817E81041715072607370721F4E8
:1047500080E002C080E090E08C879D870E9411215C
:104760008C859D852D960FB6F894DEBF0FBECDBF0C
:10477000DF91CF911F910F91FF90EF9008951F93BC
:10478000CF93DF93EB010E942C23882349F01AE09A
:10479000CE010E946423892B31F4115051F403C0DF
:1047A00080E090E00DC081E090E0111109C080E050
:1047B00007C068EE73E080E090E00E946924E8CFD3
:1047C000DF91CF911F9108950F9300E020E040E02A
:1047D00060E088EE95E00E94C5270F910895089546
:1047E0001F920F920FB60F9211242F933F938F9326
:1047F0009F93AF93BF938091EF059091F005A091A7
:10480000F105B091F2053091EE0523E0230F2D372D
:1048100020F40196A11DB11D05C026E8230F0296C4
:10482000A11DB11D2093EE058093EF059093F00537
:10483000A093F105B093F2058091F3059091F405F2
:10484000A091F505B091F6050196A11DB11D8093CB
:10485000F3059093F405A093F505B093F605BF9189
:10486000AF919F918F913F912F910F900FBE0F901D
:104870001F9018952FB7F8946091EF057091F0058F
:104880008091F1059091F2052FBF08953FB7F894FC
:104890008091F3059091F405A091F505B091F6058E
:1048A00026B5A89B05C02F3F19F00196A11DB11D8B
:1048B0003FBF6627782F892F9A2F620F711D811DA8
:1048C000911D42E0660F771F881F991F4A95D1F707
:1048D0000895CF92DF92EF92FF92CF93DF936B0117
:1048E0007C010E944624EB01C114D104E104F104CF
:1048F00089F00E94EF230E9446246C1B7D0B683ECA
:10490000734090F381E0C81AD108E108F108C8515A
:10491000DC4FEACFDF91CF91FF90EF90DF90CF9007
:104920000895019739F0880F991F880F991F0297F2
:104930000197F1F70895789484B5826084BD84B5B9
:10494000816084BD85B5826085BD85B5816085BD8A
:10495000EEE6F0E0808181608083E1E8F0E01082A3
:10496000808182608083808181608083E0E8F0E0E4
:10497000808181608083E1EBF0E0808184608083CE
:10498000E0EBF0E0808181608083EAE7F0E0808105
:104990008460808380818260808380818160808365
:1049A0008081806880831092C1000895833081F0F7
:1049B00028F4813099F08230A1F008958730A9F071
:1049C0008830B9F08430D1F4809180008F7D03C0AD
:1049D000809180008F7780938000089584B58F77D1
:1049E00002C084B58F7D84BD08958091B0008F771B
:1049F00003C08091B0008F7D8093B0000895CF9365
:104A0000DF9390E0FC01EA54FE4F2491FC01E65351
:104A1000FE4F8491882349F190E0880F991FFC0193
:104A2000EE50FE4FA591B49188519E4FFC01C59167
:104A3000D4919FB7611108C0F8948C91209582237E
:104A40008C93888182230AC0623051F4F8948C914F
:104A5000322F309583238C938881822B888304C0E6
:104A6000F8948C91822B8C939FBFDF91CF91089506
:104A70000F931F93CF93DF931F92CDB7DEB7282FED
:104A800030E0F901EE55FE4F8491F901EA54FE4FF2
:104A90001491F901E653FE4F04910023C9F08823D5
:104AA00021F069830E94D6246981E02FF0E0EE0FA7
:104AB000FF1FE851FE4FA591B4919FB7F8948C91D8
:104AC000611103C01095812301C0812B8C939FBF7E
:104AD0000F90DF91CF911F910F910895CF93DF93A6
:104AE000282F30E0F901EE55FE4F8491F901EA5488
:104AF000FE4FD491F901E653FE4FC491CC2391F0BF
:104B000081110E94D624EC2FF0E0EE0FFF1FE2523D
:104B1000FE4FA591B4912C912D2381E090E021F4DA
:104B200080E002C080E090E0DF91CF910895FC0129
:104B3000818D228D90E0805C9F4F821B91098F7345
:104B400099270895FC01918D828D981731F0828DFF
:104B5000E80FF11D858D90E008958FEF9FEF089588
:104B6000FC01918D828D981761F0828DDF01A80F75
:104B7000B11D5D968C91928D9F5F9F73928F90E097
:104B800008958FEF9FEF089584E397E2892B49F012
:104B900080E090E0892B29F00E94342781110C9449
:104BA00000000895FC01848DDF01A80FB11DA35AF8
:104BB000BF4F2C91848D90E001968F739927848F3D
:104BC000A689B7892C93A089B1898C9180648C9334
:104BD000938D848D981306C00288F389E02D80811F
:104BE0008F7D80830895CF93DF93EC01888D882398
:104BF000C9F0EA89FB89808185FD05C0A889B9894A
:104C00008C9186FD0FC00FB607FCF5CF808185FF24
:104C1000F2CFA889B9898C9185FFEDCFCE010E9492
:104C2000D225E7CFDF91CF910895CF92DF92FF9207
:104C30000F931F93CF93DF931F92CDB7DEB76C0115
:104C4000DC015B969C915B975C968C915C979813CA
:104C500007C05096ED91FC915197808185FD32C03F
:104C6000F601038D10E00F5F1F4F0F731127F02E19
:104C7000F601848DF81211C00FB607FCF9CFD601EA
:104C80005096ED91FC915197808185FFF1CFC6013F
:104C900069830E94D2256981EBCF838DE80FF11DD6
:104CA000E35AFF4F6083D6015B960C935B97529655
:104CB000ED91FC91539780818062808381E05896CA
:104CC0008C930DC0D6015696ED91FC915797608359
:104CD0005096ED91FC91519780818064808381E0B2
:104CE00090E00F90DF91CF911F910F91FF90DF9097
:104CF000CF900895BF92CF92DF92EF92FF92CF9321
:104D0000DF93EC016A017B01B22EE889F98982E028
:104D10008083411581EE580761057105A1F060E0BF
:104D200079E08DE390E0A70196010E94C52C215007
:104D30003109410951095695479537952795211510
:104D400080E1380798F0E889F989108260E874E812
:104D50008EE190E0A70196010E94C52C21503109F7
:104D6000410951095695479537952795EC85FD855D
:104D70003083EE85FF852083188EEC89FD89B08213
:104D8000EA89FB89808180618083EA89FB8980814F
:104D900088608083EA89FB89808180688083EA89D2
:104DA000FB8980818F7D8083DF91CF91FF90EF9091
:104DB000DF90CF90BF9008951F920F920FB60F9281
:104DC00011242F938F939F93EF93FF93E091070606
:104DD000F09108068081E0910D06F0910E0682FDAB
:104DE00012C09081809110068F5F8F732091110601
:104DF000821751F0E0911006F0E0E950FA4F958FDC
:104E00008093100601C08081FF91EF919F918F9157
:104E10002F910F900FBE0F901F9018951F920F9219
:104E20000FB60F9211242F933F934F935F936F937D
:104E30007F938F939F93AF93BF93EF93FF9387EFEE
:104E400095E00E94D225FF91EF91BF91AF919F9184
:104E50008F917F916F915F914F913F912F910F9023
:104E60000FBE0F901F90189587EF95E00E94972531
:104E700021E0892B09F420E0822F08951092FA0591
:104E80001092F90588EE93E0A0E0B0E08093FB0576
:104E90009093FC05A093FD05B093FE058BEF91E088
:104EA0009093F8058093F70585EC90E090930406C5
:104EB0008093030684EC90E09093060680930506A9
:104EC00080EC90E0909308068093070681EC90E0D8
:104ED00090930A068093090682EC90E090930C066A
:104EE00080930B0686EC90E090930E0680930D065F
:104EF00010921006109211061092120610921306CC
:104F00000895AF92BF92CF92DF92EF92FF920F93EC
:104F10001F93CF93DF936C017B01C0E0D0E000E0F2
:104F200010E0F601EC0FFD1F4AE050E06281C7017E
:104F30000E94FA285C016EE2C7010E944B288A0D8C
:104F40009B1D080F191F2196C330D10551F74AE068
:104F500050E0F6016581C7010E94FA28800F911F79
:104F6000DF91CF911F910F91FF90EF90DF90CF9045
:104F7000BF90AF9008952BE032E0FC013183208395
:104F8000128213821482158208950F93FC018BE024
:104F900092E09183808362834383248305830F910E
:104FA00008952BE032E0FC0131832083FB01408136
:104FB000518162817381FC014283538364837583D1
:104FC0000895FB014081518162817381FC0142831C
:104FD00053836483758308958BE092E090939506E4
:104FE0008093940610929606109297061092980657
:104FF00010929906089508950E949B240E94FB2711
:105000000E940A02C4ECD5E20E941B042097E1F33F
:105010000E94C425F9CFCF92DF92EF92FF920F93B7
:105020001F93CF93DF936C017A01EB01E60EF71E1D
:1050300000E010E0CE15DF0561F06991D601ED9139
:10504000FC910190F081E02DC6010995080F191F10
:10505000F1CFC801DF91CF911F910F91FF90EF9099
:10506000DF90CF9008956115710581F0DB010D90FF
:105070000020E9F7AD0141505109461B570BDC01F7
:10508000ED91FC910280F381E02D099480E090E0A5
:1050900008950C943328DC01ED91FC910190F0818E
:1050A000E02D0994DB01ED91FC9111970190F081C5
:1050B000E02DBC01CD0109940F931F93CF93DF9393
:1050C000EC016DE00E944B288C016AE0CE010E9449
:1050D0004B28800F911FDF91CF911F910F91089561
:1050E0000F931F93CF93DF93EC010E9433288C0121
:1050F000CE010E945C28800F911FDF91CF911F91FC
:105100000F9108950F931F93CF93DF93EC010E94AB
:1051100052288C01CE010E945C28800F911FDF91E4
:10512000CF911F910F9108958F929F92AF92BF924E
:10513000CF92DF92EF92FF920F931F93CF93DF9363
:10514000CDB7DEB7A1970FB6F894DEBF0FBECDBFC7
:105150007C01C42EE52FCB01D22E19A221E02D1502
:1051600010F02AE0D22E8E010F5D1F4F8D2C912C56
:10517000A12CB12C6C2D7E2FA50194010E94C52C71
:105180008C2DD29E80191124015011098A3014F4FB
:10519000805D01C0895CF8018083211531054105DE
:1051A000510521F0C22EE32FCA01E4CFB801C70197
:1051B0000E943328A1960FB6F894DEBF0FBECDBF74
:1051C000DF91CF911F910F91FF90EF90DF90CF90E3
:1051D000BF90AF909F908F9008952115310541F4B5
:1051E000DC01ED91FC910190F081E02D642F099498
:1051F0000C9494289A01462F50E060E070E00C94E3
:10520000ED280F931F93CF93DF93EC019A01462F64
:1052100050E060E070E00E94ED288C01CE010E9419
:105220005C28800F911FDF91CF911F910F910895FE
:10523000CF93DF9300D000D0CDB7DEB79B01AC0198
:10524000611571058105910569F069833A834B8386
:105250005C830E94902D29813A814B815C810E9460
:10526000E72C03C060E070E0CB010F900F900F902F
:105270000F90DF91CF910895CF92DF92EF92FF923E
:105280006B017C01621773078407950764F4CA01F8
:10529000B9016C197D098E099F090E9418296C0DAE
:1052A0007D1D8E1D9F1DFF90EF90DF90CF90089584
:1052B00070E09B01382BC90108955058BB27AA27DD
:1052C0000ED04DC13ED130F043D120F031F49F3F9C
:1052D00011F41EF433C10EF4E095E7FB29C1E92F68
:1052E0004FD180F3BA17620773078407950718F048
:1052F00071F49EF567C10EF4E0950B2EBA2FA02D28
:105300000B01B90190010C01CA01A0011124FF2772
:10531000591B99F0593F50F4503E68F11A16F0406D
:10532000A22F232F342F4427585FF3CF469537956C
:105330002795A795F0405395C9F77EF41F16BA0B31
:10534000620B730B840BBAF09150A1F0FF0FBB1FDF
:10535000661F771F881FC2F70EC0BA0F621F731F28
:10536000841F48F4879577956795B795F7959E3F85
:1053700008F0B3CF9395880F08F09927EE0F979513
:10538000879508950CD0EBC0E3D040F0DAD030F030
:1053900021F45F3F19F0CCC0511115C1CFC0F0D03E
:1053A00098F39923C9F35523B1F3951B550BBB27EC
:1053B000AA2762177307840738F09F5F5F4F220F99
:1053C000331F441FAA1FA9F333D00E2E3AF0E0E892
:1053D00030D091505040E695001CCAF729D0FE2FDE
:1053E00027D0660F771F881FBB1F26173707480770
:1053F000AB07B0E809F0BB0B802DBF01FF27935826
:105400005F4F2AF09E3F510568F092C0DCC05F3FBD
:10541000ECF3983EDCF3869577956795B795F7950D
:105420009F5FC9F7880F911D9695879597F9089505
:10543000E1E0660F771F881FBB1F621773078407A1
:10544000BA0720F0621B730B840BBA0BEE1F88F7B0
:10545000E095089504D06894B111B5C0089598D02E
:1054600088F09F5790F0B92F9927B751A0F0D1F04D
:10547000660F771F881F991F1AF0BA95C9F712C0D7
:10548000B13081F09FD0B1E008959CC0672F782F94
:105490008827B85F39F0B93FCCF386957795679543
:1054A000B395D9F73EF490958095709561957F4FAF
:1054B0008F4F9F4F0895E89409C097FB3EF4909555
:1054C0008095709561957F4F8F4F9F4F9923A9F0DD
:1054D000F92F96E9BB279395F6958795779567956C
:1054E000B795F111F8CFFAF4BB0F11F460FF1BC0B0
:1054F0006F5F7F4F8F4F9F4F16C0882311F096E943
:1055000011C0772321F09EE8872F762F05C06623F0
:1055100071F096E8862F70E060E02AF09A95660FA9
:10552000771F881FDAF7880F9695879597F9089562
:1055300097F99F6780E870E060E008959FEF80EC46
:10554000089500240A9416161706180609060895E9
:1055500000240A9412161306140605060895092E4F
:105560000394000C11F4882352F0BB0F40F4BF2BBE
:1055700011F460FF04C06F5F7F4F8F4F9F4F0895FE
:1055800057FD9058440F551F59F05F3F71F04795F4
:10559000880F97FB991F61F09F3F79F087950895D9
:1055A000121613061406551FF2CF4695F1DF08C0F8
:1055B000161617061806991FF1CF86957105610515
:1055C00008940895E894BB2766277727CB0197F9BD
:1055D00008950BD0C4CFB5DF28F0BADF18F09523BB
:1055E00009F0A6CFABCF1124EECFCADFA0F3959F71
:1055F000D1F3950F50E0551F629FF001729FBB27BA
:10560000F00DB11D639FAA27F00DB11DAA1F649F65
:105610006627B00DA11D661F829F2227B00DA11D18
:10562000621F739FB00DA11D621F839FA00D611D9E
:10563000221F749F3327A00D611D231F849F600DBF
:10564000211D822F762F6A2F11249F5750408AF0F8
:10565000E1F088234AF0EE0FFF1FBB1F661F771F84
:10566000881F91505040A9F79E3F510570F060CFC0
:10567000AACF5F3FECF3983EDCF38695779567956C
:10568000B795F795E7959F5FC1F7FE2B880F911DA2
:105690009695879597F90895FA01EE0FFF1F3096BA
:1056A0002105310599F16115710561F48038BFE379
:1056B0009B0749F168949038810561F08038BFEF0D
:1056C0009B0741F0992342F5FF3FE1053105210594
:1056D00011F1E8940894E795D901AA2329F4AB2F96
:1056E000BE2FF85FD0F310C0FF5F70F4A695E0F70F
:1056F000F73950F019F0FF3A38F49F779F930CD0A8
:105700000F9007FC905808953EF018CF60E070E0CD
:1057100080E89FE308954FE79F775F934F933F9310
:105720002F939ED02F913F914F915F9152DF05C0F3
:1057300019F40EF0FDCE46CF01CF2ADFC8F396381C
:10574000C0F707F80F92E8942BE33AEA48EB5FE7DB
:105750004EDF0F920F920F924DB75EB70F92C0D0EF
:10576000E0E9F0E016D04F915F91EF91FF91E59560
:10577000EE1FFF1F49F0FE57E0684427EE0F441F5D
:10578000FA95E1F74195550B32D00F9007FE26C0F0
:105790000895DF93CF931F930F93FF92EF92DF92C1
:1057A0007B018C01689405C0DA2EEF011EDFFE013B
:1057B000E894A5912591359145915591AEF3EF016E
:1057C0008EDDFE019701A801DA9479F7DF90EF9062
:1057D000FF900F911F91CF91DF9108959B01AC0134
:1057E00060E070E080E89FE3CDCDA2CEACC0D0DE1B
:1057F000E8F39923D9F3940F511DBBF39150504016
:1058000094F059F0882332F0660F771F881F91506B
:105810005040C1F79E3F510544F7880F911D969562
:10582000879597F908955F3FACF0983E9CF0BB27B1
:10583000869577956795B79508F4B1609395C1F70C
:10584000BB0F58F711F460FFE8CF6F5F7F4F8F4FAA
:105850009F4FE3CFB8CE0EF076C070CE689468CE7E
:1058600097DEC8F39923D1F3C6F3DF93CF931F9349
:105870000F93FF92C92FDD2788232AF02197660F07
:10588000771F881FDAF720E030E040E85FEB9FE306
:10589000883920F0803E30F021968F770FDDE8EBDD
:1058A000F0E003C00BDDE5EEF0E073DF8B01BE013D
:1058B000EC01FB2E6F5771097595771F880B990BBB
:1058C000FCDD28E132E741E35FE38FDEAF2D980195
:1058D000AE01FF900F911F91CF91DF9100DD3FCE80
:1058E000FA01DC01AA0FBB1F9B01AC01BF5728F4D2
:1058F00022273327442750781FC0B75188F4AB2F95
:105900000024469537952795011CA395D2F30020D6
:1059100069F0220F331F441FB395DAF30DD0CDCCBD
:1059200061307105A0E88A07B94630F49B01AC01EB
:105930006627772788279078309621F02083318357
:105940004283538308959F3F31F0915020F487950F
:1059500077956795B795880F911D9695879597F9D7
:10596000089597FB072E16F4009407D077FD09D011
:105970000E941E2D07FC05D03EF4909581959F4F07
:105980000895709561957F4F0895A1E21A2EAA1B84
:10599000BB1BFD010DC0AA1FBB1FEE1FFF1FA217DF
:1059A000B307E407F50720F0A21BB30BE40BF50BDC
:1059B000661F771F881F991F1A9469F76095709565
:1059C000809590959B01AC01BD01CF010895052EF6
:1059D00097FB1EF400940E94FE2C57FD07D00E94F6
:1059E000C52C07FC03D04EF40C94FE2C509540952A
:1059F000309521953F4F4F4F5F4F0895909580957B
:105A0000709561957F4F8F4F9F4F0895EE0FFF1F49
:105A10000590F491E02D0994692796276927782746
:105A20008727782708950E94322DA59F900DB49F57
:105A3000900DA49F800D911D11240895AA1BBB1BDE
:105A400051E107C0AA1FBB1FA617B70710F0A61B7E
:105A5000B70B881F991F5A95A9F780959095BC019F
:105A6000CD010895A29FB001B39FC001A39F700D07
:105A7000811D1124911DB29F700D811D1124911D56
:105A800008958F929F92AF92BF92CF92DF92EF9242
:105A9000FF92CF93DF93EC01688179818A819B81AA
:105AA000611571058105910521F464E279ED8BE5BD
:105AB00097E02DE133EF41E050E00E94E72C4901EF
:105AC0005A019B01AC01A7EAB1E40E94132D6B01BE
:105AD0007C01ACEEB4EFA50194010E94B52DC60E79
